:100000000C94E1000C9400010C9400010C9400018C
:100010000C9400010C9400010C9400010C9400015C
:100020000C9400010C9400010C9400010C9400014C
:100030000C9400010C9400010C9400010C94030733
:100040000C9400010C9400010C9400010C9400012C
:100050000C9400010C94140C0C9400010C940001FD
:100060000C9400010C9400010C9400010C9400010C
:100070000C9400010C9400010C94CF060C94F9062A
:100080000C9400010C9400010C9400011306150659
:10009000170619061B06570657061D061F062106DA
:1000A00023062506270642064406460648064A0653
:1000B000570657064C064E0650065206540656067C
:1000C0006E616E00696E660000407A10F35A00A0FF
:1000D000724E18090010A5D4E80000E87648170011
:1000E00000E40B54020000CA9A3B000000E1F50551
:1000F000000080969800000040420F000000A0869B
:1001000001000000102700000000E80300000000CC
:100110006400000000000A00000000000100000070
:1001200000002C76D888DC674F0823DFC1DFAE598A
:10013000E1B1B796E5E3E453C63AE651997696E81D
:10014000E6C28426EB898C9B62ED407C6FFCEFBCA1
:100150009C9F40F2BAA56FA5F490055A2AF75C93CC
:100160006B6CF9676DC11BFCE0E40D47FEF520E602
:10017000B500D0ED902E0300943577050080841EE5
:10018000080000204E0A000000C80C333333330F40
:10019000986E12831141EF8D2114893BE65516CFDD
:1001A000FEE6DB18D1844B381BF77C1D901DA4BBE9
:1001B000E424203284725E228100C9F124ECA1E59E
:1001C0003D2711241FBECFEFD0E1DEBFCDBF13E02E
:1001D000A0E0B1E0EAECF2E300E00BBF02C0079060
:1001E0000D92AC3CB107D9F726E0ACECB3E001C00E
:1001F0001D92AB35B207E1F70E94AB0C0C9463196A
:100200000C94000026E63EE0E22FF32F3197F1F741
:100210008A95D1F70895CF93DF93D82FC0E0CD17FB
:1002200071F08AEF0E9402018AEF0E9402018AEFB8
:100230000E9402018AEF0E940201CF5FF0CFDF919E
:10024000CF9108952091080530910905F901EE0F2D
:10025000FF1FEE5FFA4F918380832230310528F033
:10026000109209051092080506C02F5F3F4F30938A
:10027000090520930805209102053091030540915E
:1002800004055091050580910605909107054217D8
:10029000530740F08217930728F04817590768F46E
:1002A000CA0108952417350718F08417950708F434
:1002B000CA012817390708F4C9010895CF93DF93BD
:1002C000CDB7DEB78EEFFE013596ADECB3E0019011
:1002D0000D928A95E1F781E08093CC03DF91CF9175
:1002E00008956091F8047091F90480E090E00E9414
:1002F000EC1326EA3DEE4FED5CE30E949E14609302
:10030000FA047093FB048093FC049093FD046091C5
:10031000F6047091F7046F5F714071FD02C0737055
:1003200001C07E6F072E000C880B990B0E94EE1304
:100330002AE535E545E05DE30E949E146093FE04E6
:100340007093FF048093000590930105089588E061
:1003500091E00E94F116E6EFF4E082E0848F868956
:1003600097899093CD048093CC041092CE04C498C6
:10037000C59A80E008958FE191E00E94F116E6EFC2
:10038000F4E081E0848F868997899093CD048093EF
:10039000CC041092CE04C598C49A80E0089587E3F7
:1003A00091E00E94F116E6EFF4E084E0848F868904
:1003B00097899093CD048093CC041092CE04C49876
:1003C000C59A80E0089585E591E00E94F116E6EF78
:1003D000F4E083E0848F868997899093CD0480939D
:1003E000CC041092CE04C598C49A80E0089584E7A6
:1003F00091E00E94F11610921205C498C59880E011
:1004000008958F929F92AF92BF92CF92DF92EF9218
:10041000FF920F931F93CF93DF93EC012091EC0495
:100420003091ED044091F0045091F1046091F20498
:100430007091F30480910A0590910B050E94590C6C
:100440000E949E0CC817D90709F47DC0C090F00423
:10045000D090F104E090F204F090F3046091EA048B
:100460007091EB04072E000C880B990B0E94EE1381
:10047000A70196010E9444134B015C010091EE0418
:100480001091EF04B801110F880B990B0E94EE1325
:100490009B01AC01C501B4010E94D2120E94B613A7
:1004A0009B01B701A601CE010E94840C8093100528
:1004B000909311059F938F9387E891E09F938F937B
:1004C0000E94DD1680910F058F9380910E058F930A
:1004D00083E991E09F938F930E94DD162091100590
:1004E0003091110580910A0590910B054DB75EB7CB
:1004F000485F5F4F0FB6F8945EBF0FBE4DBF8217C7
:10050000930770F4DF91CF911F910F91FF90EF90BF
:10051000DF90CF90BF90AF909F908F900C94A701E9
:100520002817390770F4DF91CF911F910F91FF9039
:10053000EF90DF90CF90BF90AF909F908F900C94F2
:10054000BB010E94F70180E0DF91CF911F910F91D5
:10055000FF90EF90DF90CF90BF90AF909F908F90E3
:1005600008959091CB0421E030E0082E01C0220FC5
:100570000A94EAF7292B2093CB041F928F9383EAE6
:1005800091E09F938F930E94DD160F900F900F9034
:100590000F9008958EEA91E00E94F11682E00E9489
:1005A000B102C49880E0089588ED91E00E94F116B0
:1005B00081E00E94B102C59880E00895A89A8AEF70
:1005C0000E9402018AEF0E940201A8988091CF0444
:1005D0009091D00401969093D0048093CF04089515
:1005E0008F929F92AF92BF92CF92DF92FF920F9322
:1005F0001F93CF93DF93CDB7DEB7E2970FB6F89492
:10060000DEBF0FBECDBF8C01633008F450C36A015A
:10061000F62E43E050E061E072E00E943916892B2B
:1006200009F055C08091CB049E012F5F3F4F5901C7
:1006300080FF19C085E092E09F938F9389E092E05C
:100640009F938F931F9289E18F933F932F930E94E3
:100650002117F50101900020E9F731979F012A1930
:100660003B09A501E7C16CEF6F0DC80104960E941C
:10067000230C80930E0590930F059F938F9381E039
:1006800092E09F938F9381E292E09F938F931F92CA
:1006900088E08F93BF92AF920E942117F5010190DD
:1006A0000020E9F731979F012A193B09A501B601FE
:1006B00080E10E94A10A80910E0590910F050E9491
:1006C00001020FB6F894DEBF0FBECDBFF0C243E00B
:1006D00050E067E272E0C8010E943916892B89F464
:1006E0000E9471018091FD048F938091FC048F938F
:1006F0008091FB048F938091FA048F9387E292E0BC
:1007000017C043E050E064E372E0C8010E9439166C
:10071000892BF9F4809101058F93809100058F93C7
:100720008091FF048F938091FE048F9384E392E085
:100730009F938F938BE292E09F938F931F928AE017
:100740008F938E010F5F1F4F1F930F930E942117EE
:1007500068C143E050E068E372E0C8010E943916C6
:10076000892B89F480910D058F9380910C058F93CF
:1007700088E392E09F938F9381E292E09F938F931F
:100780001F9288E01FC243E050E06CE372E0C801B2
:100790000E943916892B09F06CC00E94710180916A
:1007A000CB04909101059F93909100059F939091A8
:1007B000FF049F939091FE049F939091FD049F935B
:1007C0009091FC049F939091FB049F939091FA0465
:1007D0009F9390911F059F9390911E059F939091D9
:1007E0001D059F9390911C059F9390911B059F93CE
:1007F00090911A059F93909119059F9390911805D8
:100800009F9390910F059F9390910E059F939091C8
:100810000D059F9390910C059F93909113051F9246
:100820009F93909112051F929F931F928F938CE339
:1008300092E09F938F9380E492E09F938F938E0139
:100840000F5F1F4F1F930F930E945E17F8010190D7
:100850000020E9F731979F01201B310B0FB6F89468
:10086000DEBF0FBECDBFA801B60180E10E94A10A84
:100870001EC243E050E068E672E0C8010E943916EB
:10088000892B29F40E94F70168E672E00BC043E06F
:1008900050E06CE672E0C8010E943916892BC1F461
:1008A0006CE672E08E010F5F1F4FC8010E94321686
:1008B000F80101900020E9F731979F01201B310BCF
:1008C000A801B60180E10E94A10A1092CB04EFC1F9
:1008D00043E050E060E772E0C8010E943916892BBE
:1008E000C1F460E772E08E010F5F1F4FC8010E94E4
:1008F0003216F80101900020E9F731979F01201B83
:10090000310BA801B60180E10E94A10A0E94DE021B
:10091000CEC143E050E064E772E0C8010E9439169E
:10092000892BB1F48091CF049091D0049F938F9341
:1009300084E792E09F938F9381E292E09F938F935D
:100940008E010F5F1F4F1F930F930E945E1769C0A8
:1009500043E050E068E772E0C8010E943916892B35
:1009600079F480911B058F9380911A058F93809164
:1009700019058F93809118058F9388E792E017C02F
:1009800043E050E064E872E0C8010E943916892B08
:10099000E1F480911F058F9380911E058F938091C4
:1009A0001D058F9380911C058F9384E892E09F939F
:1009B0008F938CE792E09F938F938E010F5F1F4F71
:1009C0001F930F930E945E172CC043E050E068E82D
:1009D00072E0C8010E943916892B89F56CEF6F0D02
:1009E000C80104960E94230C8093F4049093F504AC
:1009F0009F938F9388E892E09F938F9381E292E098
:100A00009F938F938E010F5F1F4F1F930F930E9431
:100A10005E174EE050E064E670E088EE94E00E94DD
:100A20004C19F80101900020E9F731979F01201B34
:100A3000310BA801B60180E10E94A10A42CE43E039
:100A400050E06CE872E0C8010E943916892B09F069
:100A5000C2C0580194E0A90EB11C42E050E06CE124
:100A600071E0C5010E943916892BC9F469EF6F0D39
:100A7000C80107960E94230C8093EE049093EF0424
:100A800020910A0530910B052093EA043093EB0482
:100A90003F932F939F938F938CE191E021C042E08D
:100AA00050E065E772E0C5010E943916892B69F5AF
:100AB00069EF6F0DC80107960E94230C8093EC0428
:100AC0009093ED0420910A0530910B052093E804E2
:100AD0003093E9043F932F939F938F9385E792E0A0
:100AE0009F938F938CE892E09F938F9380E992E09D
:100AF0009F938F931F9280E18F938E010F5F1F4F03
:100B00001F930F930E9421178CCF42E050E06CE9B5
:100B100072E0C5010E943916892B09F0C8C06091A6
:100B2000EA047091EB048091E8049091E904681B59
:100B3000790B072E000C880B990B0E94EE134B01CA
:100B40005C018091EE049091EF042091EC043091CF
:100B5000ED04821B930BBC01990F880B990B0E942B
:100B6000EE139B01AC01C501B4010E9444134B017B
:100B70005C0120E030E0A9010E943F1387FF04C020
:100B8000B7FAB094B7F8B0948092F0049092F10460
:100B9000A092F204B092F3044EE050E064E670E0FC
:100BA00088EE94E00E944C198CE992E09F938F9319
:100BB0008CE892E09F938F938FE992E09F938F93BD
:100BC0001F928CE08F938E010F5F1F4F1F930F9327
:100BD0000E94211726CF43E050E065EA72E0C80189
:100BE0000E943916892B09F062C0680134E0C30EF7
:100BF000D11C42E050E069EA72E0C6010E94391659
:100C0000892B39F569EF6F0DC80107960E94230CF7
:100C1000FC01FF273297ED30F10508F048C0EA5B90
:100C2000FF4F0C941F15AC9A42C0AB9A40C0AA9AD1
:100C30003EC0A99A3CC0A89A3AC0C69A38C0C79A82
:100C400036C0949A34C0959A32C0969A30C0979A1A
:100C50002EC042E050E06CEA72E0C6010E943916F4
:100C6000892B29F569EF6F0DC80107960E94230CA7
:100C7000FC01FF273297ED30F105C8F4ED5AFF4F24
:100C80000C941F15AC9813C0AB9811C0AA980FC054
:100C9000A9980DC0A8980BC0C69809C0C79807C0EE
:100CA000949805C0959803C0969801C09798E296CD
:100CB0000FB6F894DEBF0FBECDBFDF91CF911F916D
:100CC0000F91FF90DF90CF90BF90AF909F908F904B
:100CD0000895CF92DF92EF92FF920F931F93CF93DD
:100CE000DF93CDB7DEB728970FB6F894DEBF0FBEFF
:100CF000CDBF0DB71EB72B893C898D898039D9F5B9
:100D0000EDB6FEB6B9016C5071098DB79EB7861B62
:100D1000970B0FB6F8949EBF0FBE8DBF01966C0166
:100D200088E0FE017696DE01119601900D928A957B
:100D3000E1F79BE0A90141505109292F30E0241728
:100D4000350770F4F601E20FF31F3B97A6E1B0E020
:100D5000AC0FBD1FA20FB31F8C9180839F5FEDCF9F
:100D6000AE014F5F5F4FC6010E94F0020FB6F894CC
:100D7000FEBE0FBEEDBE0FB6F8941EBF0FBE0DBF78
:100D800028960FB6F894DEBF0FBECDBFDF91CF918E
:100D90001F910F91FF90EF90DF90CF9008951F92D9
:100DA0000F920FB60F9211240BB60F922F933F9311
:100DB0004F935F936F937F938F939F93AF93BF9363
:100DC000EF93FF9380919C000E94350BFF91EF9170
:100DD000BF91AF919F918F917F916F915F914F9153
:100DE0003F912F910F900BBE0F900FBE0F901F9051
:100DF00018951F920F920FB60F9211240F900FBEED
:100E00000F901F9018951F920F920FB60F921124FA
:100E10000BB60F922F933F934F935F936F937F93F4
:100E20008F939F93AF93BF93EF93FF938091DD04D4
:100E30009091DE0401969093DE048093DD0480910E
:100E4000D9049091DA0401969093DA048093D9043E
:100E50008091DB049091DC0401969093DC048093F4
:100E6000DB048091D5049091D60401969093D6042A
:100E70008093D5048091D7049091D80401969093E3
:100E8000D8048093D7048091D3049091D404019620
:100E90009093D4048093D3048091DD049091DE0478
:100EA00064EF71E00E940B15892B19F48BB3805805
:100EB0008BBB8091DD049091DE0468EE73E00E94AC
:100EC0000B15892B49F48091D1049091D20401969D
:100ED0009093D2048093D1040E94C00BFF91EF91B4
:100EE000BF91AF919F918F917F916F915F914F9142
:100EF0003F912F910F900BBE0F900FBE0F901F9040
:100F00001895E0E2F5E011821082138212821482B9
:100F1000359685E0E235F807B1F70895BF92CF9294
:100F2000DF92EF92FF920F931F93CF93DF9300D046
:100F300000D01F92CDB7DEB749835A836B837C8381
:100F40008D830DB71EB74B815C81E0E2F5E080E058
:100F500090E0282F60817181672B79F425E0289F2C
:100F6000D001299FB00D1124A05EBA4FFE01319629
:100F700001900D922A95E1F780C062817381461736
:100F8000570708F073C0CDB6DEB66AE070E0681BA4
:100F9000790B35E0369FA001379F500D1124EDB736
:100FA000FEB7E41BF50B0FB6F894FEBF0FBEEDBF06
:100FB0004DB75EB74F5F5F4F7A0130E0E5E0BE2E80
:100FC000432F50E046175707BCF4B49ED001B59E9E
:100FD000B00D1124AE0DBF1D480F591FB49EF00176
:100FE000B59EF00D1124E05EFA4F4B2D01900D924D
:100FF0004A95E1F73F5FE4CF35E0389FD001399F54
:10100000B00D1124A05EBA4FFE01319601900D92F1
:101010003A95E1F730E049E050E0481B590B65E0B4
:10102000B62E632F70E064177507CCF4FC01E60F51
:10103000F71F3196BE9ED001BF9EB00D1124A05E59
:10104000BA4FB69EF001B79EF00D1124EE0DFF1DB4
:101050006B2D01900D926A95E1F73F5FE2CF0FB6DD
:10106000F894DEBE0FBECDBE822F07C00196359626
:101070008A30910509F06DCF8FEF0FB6F8941EBF3F
:101080000FBE0DBF0F900F900F900F900F90DF913C
:10109000CF911F910F91FF90EF90DF90CF90BF9075
:1010A0000895E0E2F5E020813181232B31F02281A7
:1010B0003381281B390B33832283359625E0E235B3
:1010C000F20789F70895CF93DF9300D000D01F92E5
:1010D000CDB7DEB785E0E0E2F5E0DE0111960190E4
:1010E0000D928A95E1F729813A814B815C816D816E
:1010F00070E080E090E00F900F900F900F900F90B5
:10110000DF91CF91089581E0209120053091210554
:10111000232B09F480E0089580912005909121050A
:10112000892BA9F080E090E025E0DC01A05EBA4FB9
:10113000FD013596322F01900D923A95E1F7059613
:101140008D32910591F710924E0510924D0508953C
:10115000E0E2F5E080E020813181232B21F08F5FF8
:1011600035968A30C1F70895E0E2F5E011821082E9
:10117000138212821482359685E0E235F807B1F7C2
:101180000895EF92FF920F931F93CF93DF93CDB704
:10119000DEB7E2970FB6F894DEBF0FBECDBF20E0FA
:1011A00030E040E090E055E0F901E05EFA4F648104
:1011B000681779F0A1E0B0E0AC0FBD1F549FA00DFF
:1011C000B11D1124652F01900D926A95E1F74F5FD3
:1011D00001C09F5F2B5F3F4F2233310529F7BE01CE
:1011E0006F5F7F4F20E235E040E050E0892F90E0D4
:1011F0000AE010E0081B190BE5E0FE2E401751072E
:1012000044F4FB01D901EF2C01900D92EA94E1F72F
:1012100006C0F901118210821482138212824F5F7C
:101220005F4F6B5F7F4F2B5F3F4F4A30510531F768
:10123000E2960FB6F894DEBF0FBECDBFDF91CF911F
:101240001F910F91FF90EF90089520E030E0F90199
:10125000E05EFA4F9481981739F02B5F3F4F2233AD
:101260003105A9F780E0089581E00895CF93DF93D9
:10127000EC01488559858C819D818417950700F57F
:101280009B018A819B810196BA010E940B159B8369
:101290008A834E815F81849FF001859FF00D949F2A
:1012A000F00D11248A859B85B9018E0F9F1F0E9426
:1012B00029168C819D8101969D838C8380E001C0DD
:1012C00081E0DF91CF910895CF93DF93FC012481DA
:1012D0003581232B21F19B01EC01468157816081EF
:1012E0007181469FC001479F900D569F900D11241C
:1012F00062857385680F791FC9010E94291688814C
:1013000099810196688579850E940B159983888358
:101310008C819D8101979D838C8380E001C081E059
:10132000DF91CF910895FC0184819581892BA1F0F3
:10133000CB014681578160817181469F9001479F13
:10134000300D569F300D112462857385620F731F17
:101350000E94291680E0089581E0089521E0FC01B3
:1013600084819581892B09F020E0822F0895FC016A
:10137000848195810895FC012481358121153105F1
:1013800079F0808191810196608571850E940B15AD
:1013900091838083215031093583248381E008952E
:1013A00080E00895FC01118210828085918501976B
:1013B0009383828315821482089513BE87B7826057
:1013C00087BF8CE083BF12BE86EE81BF089515BC37
:1013D00014BC8BE085BD86B7806886BF8EE183BD77
:1013E00087B7806887BF08958FEF8ABB97EF97BB59
:1013F00084BB8BEF81BB12B8109261001092640025
:10140000929A939A88B388BB15BA82B382BB83E061
:101410008093650008959093900089B986E0809349
:10142000950088E18AB908955D9BFECF8CB980E074
:101430000895EF92FF920F931F93CF93DF937C0158
:101440008C01C62FD0E0C8018E199F098C179D070B
:1014500034F4F80181918F010E94140AF4CF80E0E6
:10146000DF91CF911F910F91FF90EF9008955F9BB7
:10147000FECF8CB10895CF935F9BFECFCCB18C2F64
:101480000E94140A8C2FCF9108958BB18078089513
:10149000909398008093990086E080939D0088E95E
:1014A00080939A00089590919B0095FFFCCF8093C4
:1014B0009C0080E00895EF92FF920F931F93CF93CB
:1014C000DF937C018C01C62FD0E0C8018E199F09E3
:1014D0008C179D0734F4F80181918F010E94530A03
:1014E000F4CF80E0DF91CF911F910F91FF90EF90AB
:1014F000089580919B0087FFFCCF8CB10895CF9316
:1015000080919B0087FFFCCFC0919C008C2F0E9494
:10151000530A8C2FCF91089580919B008078089575
:101520001092E5041092E7041092E6040895909357
:10153000E3048093E2047093E1046093E0040C946C
:10154000900A7F928F929F92AF92BF92CF92DF923A
:10155000EF92FF920F931F93CF93DF9300D0CDB7FD
:10156000DEB7E82EF42ED52E722EE091E204F09133
:10157000E3048EE769837A830995E091E204F091B0
:10158000E30480E00995E091E204F091E3048EE049
:10159000870D0995E091E204F091E3048E2D099501
:1015A000E091E204F091E3048091DF0409958091D9
:1015B000DF04E80E8F5F8093DF046981062F7A8154
:1015C000172F580188E0A80EB11C4801E091E204F1
:1015D000F091E304D8018D918D010995F40180818A
:1015E000E80E0A151B0589F7E091E204F091E30487
:1015F0008FEF0995E091E204F091E3048EEF0995F5
:101600008DEFB82EBE0CE091E204F091E30480E08F
:101610000995E091E204F091E30480E00995EF2C54
:101620000F2D1D2DE091E204F091E304802F8E191F
:10163000871548F46801D8018D918D010995F6014F
:101640008081B80EEFCF8B2D80950F900F90DF919A
:10165000CF911F910F91FF90EF90DF90CF90BF90AF
:10166000AF909F908F907F9009941092E404209106
:10167000E6043091E704A9014F5F5F4F5093E70400
:101680004093E6049091E504913009F06DC041303B
:10169000510529F410925205809353050895423064
:1016A000510561F42091520530915305A901482B51
:1016B000CA01909353058093520508954330510514
:1016C00019F4809354054BC0E0915205F0915305F5
:1016D000B901625071096E177F07B1F590914F06FD
:1016E000890F8F3F09F58DB79EB78E5F91090FB6B1
:1016F000F8949EBF0FBE8DBFADB7BEB711968EEFEB
:10170000E2E5F5E001900D928A95E1F7E091E004C1
:10171000F091E10409954DB75EB742505F4F0FB6A7
:10172000F8945EBF0FBE4DBF1092E5048091520544
:1017300090915305019720E0422F50E04817590738
:1017400010F42F5FF9CF08954F3F510509F050F481
:10175000F901EE5AFA4F808390914F06890F8093DA
:101760004F0608950C94900A8E3749F481E08093D7
:10177000E5041092E7041092E60410924F060895D3
:101780008091E4048F5F8093E4048091E4048536C3
:1017900020F00E94900A1092E4040895339837983C
:1017A000089596B1987F892B86B9089527B130E4C2
:1017B000839FC00111242F73822B87B90895379A14
:1017C000359887E00E94D10B81E00E94D60B3D98AE
:1017D000339A10925006089597B18F71907E892B9D
:1017E00087B90895349A369A089586B18074089519
:1017F0001092500697B18F71907E892B87B9349AD9
:10180000369A3699FECF84B125B190E0922B089597
:1018100084B125B190E0922B08950E94F80B969523
:1018200087959695879508951F920F920FB60F9200
:1018300011248F9381E0809350068F910F900FBEFB
:101840000F901F9018950F931F93CF93DF93CDB7F1
:10185000DEB7482F792F0DB71EB7262F30E0C9010C
:101860000196EDB7FEB7E81BF90B0FB6F894FEBF73
:101870000FBEEDBF8DB79EB70196542FDC01E42F4C
:10188000F72F4E2F451B461718F441914D93F9CF72
:10189000FC01E20FF31F4AE040830E9428150FB6B7
:1018A000F8941EBF0FBE0DBFDF91CF911F910F9116
:1018B0000895CF92DF92EF92FF92CF93DF936A0168
:1018C0007B01E901BC01990F880B990B0E94EE1373
:1018D000A70196010E9444136B017C01BE01DD0F3C
:1018E000880B990B0E94EE139B01AC01C701B60156
:1018F0000E94D2120E94B613CB01DF91CF91FF90CC
:10190000EF90DF90CF900895CF92DF92EF92FF9209
:101910006A017B01820F931FBC01990F880B990B01
:101920000E94EE13A70196010E949E140E94B61316
:10193000CB01FF90EF90DF90CF90089597FF03C009
:1019400088599E4FFBCF883621E092071CF08856BD
:101950009140F9CF0895F8940E94F4090E94DD099E
:1019600087E090E00E940B0A6BE37AE084E19AE062
:101970000E945A168FE090E00E94480A8FEF0E9462
:1019800002018FEA92E00E94F1160E94DF0B6EE5E1
:1019900071E083E59AE00E94970A10921205109276
:1019A00013054EE050E064E670E088EE94E00E949B
:1019B0003C1978948FEF0E94020180EC92E00E9423
:1019C000F11682ED92E00E94F1168BED92E00E94FA
:1019D000F1168091F3048F938091F2048F9380919C
:1019E000F1048F938091F0048F9384EE92E09F93A3
:1019F0008F930E94DD168091ED048F938091EC040B
:101A00008F9387EF92E09F938F930E94DD168091D2
:101A1000EF048F938091EE048F9388E093E09F937F
:101A20008F930E94DD168091E9048F938091E804E2
:101A30008F9388E193E09F938F930E94DD168091AE
:101A4000EB048F938091EA048F9389E293E09F9354
:101A50008F930E94DD168091F5048F938091F4049A
:101A60008F9389E393E09F938F930E94DD1681E02B
:101A70000E94F80B0E94220190930B0580930A05A7
:101A800081E00E94F80B0E94220190930B05809345
:101A90000A0581E00E94F80B0E94220190930B0539
:101AA00080930A050E94DE028DB79EB74A960FB654
:101AB000F8949EBF0FBE8DBF8CE3282E312C9EE480
:101AC000C92E93E0D92EC2E6D3E006E713E0809159
:101AD000D1049091D204B1010E940B158091F404BD
:101AE0009091F5046817790730F00E94DE02109299
:101AF000D2041092D1048091D3049091D404893EF1
:101B0000934008F46CC087E00E94F80B7C0190932E
:101B1000150580931405BC0180E090E00E94EC1351
:101B20002DEC3CEC4CEC52E40E94D21220E030E070
:101B30004AEF5EE30E949E149B01462F532F682FAD
:101B4000792F409318055093190560931A057093E7
:101B50001B059F938F933F932F93FF92EF92DF92FA
:101B6000CF920E94DD1685E00E94F80B7C019093D5
:101B7000170580931605BC0180E090E00E94EC13ED
:101B80002DEC3CEC4CEC52E40E94D21220E030E010
:101B90004AEF5EE30E949E149B01462F532F682F4D
:101BA000792F40931C0550931D0560931E0570937B
:101BB0001F059F938F933F932F93FF92EF92DF9395
:101BC000CF930E94DD161092D4041092D3048DB7E7
:101BD0009EB740960FB6F8949EBF0FBE8DBF809102
:101BE000DB049091DC04853F914058F086E00E9430
:101BF000F80B9093F9048093F8041092DC0410928F
:101C0000DB048091D9049091DA04853F914058F02B
:101C100084E00E94F80B9093F7048093F6041092EE
:101C2000DA041092D9048091D7049091D804893EA7
:101C30009340B0F0809113050E9B02C0816001C0FB
:101C40008E7F80931305809113050F9B02C08260E5
:101C500001C08D7F809313051092D8041092D70491
:101C60008091D5049091D6048B3F910508F4CFC0A4
:101C700081E00E94F80B0E9422017C0190930B05E9
:101C800080930A058090F0049090F104A090F204F3
:101C9000B090F3046091EA047091EB04072E000CFD
:101CA000880B990B0E94EE13A50194010E94441326
:101CB0002B013C016091EE047091EF04072E000CA3
:101CC000880B990B0E94EE139B01AC01C301B2017A
:101CD0000E94D2120E94B6139B01B501A401C70154
:101CE0000E94590C0E949E0C80930C0590930D0548
:101CF00020910B052F9320910A052F939F938F938B
:101D00001F930F930E94DD168091120581500F9052
:101D10000F900F900F900F900F908230B8F4809139
:101D20000A0590910B052091E8043091E9042817E9
:101D3000390718F00E94CA0209C02091EA043091C4
:101D4000EB048217930710F00E94D40280911205D1
:101D5000823089F420910A0530910B05809110059D
:101D6000909111058217930730F40E94F70180E9E2
:101D700093E00E94F11680911205813089F4209140
:101D80000A0530910B05809110059091110582177D
:101D9000930730F00E94F70180E993E00E94F1166A
:101DA0008091630083708093010190910101809183
:101DB0000001981741F1809100018330D1F48091A6
:101DC000010180FD09C08091CB0480FD18C00E94F4
:101DD000E3018FE993E011C08091010181FD0FC003
:101DE0008091CB0480FD0BC00E94CF018AEA93E072
:101DF00004C00E94F70184EB93E00E94F1168091E9
:101E00000101809300011092D6041092D5048091B4
:101E1000CC03882309F45BCE8DB79EB78E5F910902
:101E20000FB6F8949EBF0FBE8DBFADB7BEB711966B
:101E3000EDECF3E08EEF01900D928A95E1F70E94B0
:101E400069061092CC038DB79EB782509F4F0FB694
:101E5000F8949EBF0FBE8DBF3ACE2F923F924F9205
:101E60005F926F927F928F929F92AF92BF92CF922A
:101E7000DF92EF92FF920F931F93CF93DF93CDB733
:101E8000DEB763970FB6F894DEBF0FBECDBF6C010F
:101E90004B012A01FC0117821682838181FF43C313
:101EA000AE014F5F5F4F3A01F6019381F40193FD5C
:101EB000859193FF81914F01882309F430C38532C6
:101EC00039F493FD859193FF81914F01853239F467
:101ED000B60190E00E94A51652012501E5CF10E061
:101EE000F12C20E02032A0F48B3269F030F4803203
:101EF00059F0833269F420612CC08D3239F080337F
:101F000039F4216026C02260246023C0286021C0EB
:101F100027FD27C030ED380F3A3078F426FF06C091
:101F2000FAE01F9F300D1124132F13C04AE0F49ED6
:101F3000300D1124F32E20620CC08E3221F426FDC8
:101F4000EEC2206406C08C3611F4206802C08836C8
:101F500041F4F40193FD859193FF81914F0181112B
:101F6000C1CF9BEB980F933018F42061805E06C0C0
:101F70009BE9980F933008F071C12F7E26FF16E081
:101F80002F73322E853619F42064322E08C086361F
:101F900021F4F22FF0683F2E02C01111115037FECC
:101FA00007C01C3350F4EE24E394E10E27E00BC08D
:101FB000183038F027E017E005C027E04CE3E42EA6
:101FC00002C0212FE12C520144E0A40EB11CF20109
:101FD00060817181828193810E2DA3010E9446153B
:101FE0002C01098100FF02C003FF07C031FC08C0BB
:101FF00032FE09C030E2232E07C02DE2222E04C09B
:102000009BE2292E01C0212C802F8C7019F0211009
:1020100068C2A8C237FE0FC0E40C04FF04C08A8166
:10202000813309F4EA941E1474F5F8E0FE1578F58E
:1020300088E0E82E2CC036FC2AC0812F90E0841561
:1020400095059CF02CEF42162FEF520674F0432DAD
:102050004068342E0AC0E2E0F0E0EC0FFD1FE10F13
:10206000F11D8081803319F411501111F4CF37FE26
:102070000EC0EE24E394E10E812F90E0481659063D
:102080002CF4141904C0EE24E39401C010E037FED0
:1020900006C01414150434F4C201019605C085E08D
:1020A00090E002C081E090E021100196112331F010
:1020B000212F30E02F5F3F4F820F931F2F2D30E0F5
:1020C0008217930714F4F81A01C0F12C832D89703C
:1020D00049F4FF2039F0B60180E290E00E94A51695
:1020E000FA94F7CF222029F0B601822D90E00E94C9
:1020F000A51633FC09C0FF2039F0B60180E390E05B
:102100000E94A516FA94F7CF37FE5AC0942D852D5C
:1021100057FE02C090E080E0292E382E20E030E00B
:10212000A2014E1951095D874C87A201421953093A
:102130005F874E87612F70E044275527461B570B5A
:10214000598B488B5FEF2516350649F4B6018EE2B0
:1021500090E02A8B3B8B0E94A5163B892A8942146A
:1021600053046CF04C855D854215530544F4EE85AF
:10217000FF85E20FF31FE60DF71D818101C080E3AB
:1021800051E0251A31082F5F3F4F4889598924169D
:1021900035064CF0B60190E02A8B3B8B0E94A516C9
:1021A0002A893B89CFCF2414350439F49A81963398
:1021B00018F4953311F404FF81E3B60190E04BC0AD
:1021C0008A81813309F00F7EB60190E00E94A51646
:1021D000111105C034FC18C085E690E017C0B601A7
:1021E0008EE290E00E94A51682E0EE24E394E80ED1
:1021F000F301E80FF11D8081B60190E00E94A51661
:1022000011508E2D91F7E6CF85E490E0B6010E9443
:10221000A51657FC05C04114510439F404FF05C04C
:102220005194419451088DE201C08BE2B60190E0D7
:102230000E94A51680E39AE0491651042CF08F5FA6
:102240005AE0451A5108F7CFB60190E00E94A51652
:10225000B601C201C0960E94A51657C1833631F05F
:10226000833779F0833509F058C021C05201E2E08C
:10227000AE0EB11CF2018081898301E010E02301E0
:1022800014C05201F2E0AF0EB11CF2014080518047
:1022900026FF03C0612F70E002C06FEF7FEFC20125
:1022A0002A8B0E9447168C012A892F7715C052016C
:1022B000F2E0AF0EB11CF2014080518026FF03C056
:1022C000612F70E002C06FEF7FEFC2012A8B0E9486
:1022D0001E168C012A892068322E23FD1AC08F2DEC
:1022E00090E008171907A8F4B60180E290E00E9478
:1022F000A516FA94F4CFF20137FC859137FE81914F
:102300002F01B60190E00E94A516F110FA94015039
:1023100011090115110579F7F8C0843611F08936D5
:1023200059F5520127FF09C0F4E0AF0EB11CF201CC
:1023300060817181828193810AC0F2E0AF0EB11C8D
:10234000F20160817181072E000C880B990B2F76AA
:10235000322E97FF09C090958095709561957F4FBB
:102360008F4F9F4F2068322E2AE030E0A3010E9459
:102370008E17E82EE6183FC0022F853721F40F7E16
:102380002AE030E01DC0097F8F3691F018F48835BF
:1023900059F0C5C0803719F0883711F0C0C000610E
:1023A00004FF09C0046007C024FF08C0066006C01F
:1023B00028E030E005C020E130E002C020E132E05A
:1023C000520107FF09C0F4E0AF0EB11CF2016081B9
:1023D00071818281938108C0F2E0AF0EB11CF201DD
:1023E0006081718180E090E0A3010E948E17E82E49
:1023F000E6180F77302E36FE0BC0332D3E7FE116E8
:1024000050F434FE0AC032FC08C0332D3E7E05C0B5
:102410000E2D332D03C00E2D01C0012F34FF0CC033
:10242000FE01EE0DF11D8081803311F4397E08C06C
:1024300032FF05C00E5F04C0832F867809F00F5F5E
:1024400033FD13C030FF06C01E2D0F1518F41F0DED
:10245000101B0F2D0F1568F4B60180E290E03B8B46
:102460000E94A5160F5F3B89F5CF0F1510F4F01AE7
:1024700001C0F12C34FF12C0B60180E390E03B8B29
:102480000E94A5163B8932FF17C031FD03C088E7C3
:1024900090E002C088E590E0B6010CC0832F8678FA
:1024A00059F031FF02C08BE201C080E237FD8DE2BE
:1024B000B60190E00E94A516E11638F4B60180E35B
:1024C00090E00E94A5161150F7CFEA94F301EE0DAB
:1024D000F11D8081B60190E00E94A516E110F5CFB4
:1024E00014C0F4E0FF1558F584E0F81A33FE1EC05E
:1024F000211026C003FF2AC000EC10E0F32DF0717C
:102500003F2EF8018491811124C0FF2009F4E5CC0D
:10251000B60180E290E00E94A516FA94F6CFF6018B
:102520008681978126C08FEF9FEF23C0B60180E29E
:1025300090E00E94A516FA94F110F8CFD9CFF12CB3
:10254000B601822D90E00E94A516D4CF04EC10E0D5
:10255000D5CF31108052B60190E00E94A5160F5FD2
:102560001F4FCFCF23E02F1510F483E0BECFF12C07
:10257000C1CF63960FB6F894DEBF0FBECDBFDF911B
:10258000CF911F910F91FF90EF90DF90CF90BF9070
:10259000AF909F908F907F906F905F904F903F9003
:1025A0002F9008955058BB27AA270E94EA120C9436
:1025B00064140E94561438F00E945D1420F039F41F
:1025C0009F3F19F426F40C9453140EF4E095E7FBA6
:1025D0000C944D14E92F0E94751458F3BA17620732
:1025E00073078407950720F079F4A6F50C949714E7
:1025F0000EF4E0950B2EBA2FA02D0B01B90190011E
:102600000C01CA01A0011124FF27591B99F0593F61
:1026100050F4503E68F11A16F040A22F232F342FA9
:102620004427585FF3CF469537952795A795F040F7
:102630005395C9F77EF41F16BA0B620B730B840B0C
:10264000BAF09150A1F0FF0FBB1F661F771F881FC4
:10265000C2F70EC0BA0F621F731F841F48F487951C
:1026600077956795B795F7959E3F08F0B0CF93950E
:10267000880F08F09927EE0F9795879508950E9487
:10268000291408F481E008950E9458130C946414EE
:102690000E945D1458F00E94561440F029F45F3FE8
:1026A00029F00C944D1451110C9498140C9453145B
:1026B0000E94751468F39923B1F3552391F3951B88
:1026C000550BBB27AA2762177307840738F09F5F53
:1026D0005F4F220F331F441FAA1FA9F335D00E2EC0
:1026E0003AF0E0E832D091505040E695001CCAF72D
:1026F0002BD0FE2F29D0660F771F881FBB1F2617F0
:1027000037074807AB07B0E809F0BB0B802DBF01C6
:10271000FF2793585F4F3AF09E3F510578F00C9495
:102720004D140C9498145F3FE4F3983ED4F38695CF
:1027300077956795B795F7959F5FC9F7880F911DB6
:102740009695879597F90895E1E0660F771F881FA2
:10275000BB1F621773078407BA0720F0621B730B55
:10276000840BBA0BEE1F88F7E09508950E94BD1305
:102770006894B1110C94981408950E947D1488F007
:102780009F5798F0B92F9927B751B0F0E1F0660F35
:10279000771F881F991F1AF0BA95C9F714C0B13076
:1027A00091F00E949714B1E008950C949714672F4C
:1027B000782F8827B85F39F0B93FCCF386957795A5
:1027C0006795B395D9F73EF490958095709561958E
:1027D0007F4F8F4F9F4F0895E89409C097FB3EF4B9
:1027E00090958095709561957F4F8F4F9F4F99235E
:1027F000A9F0F92F96E9BB279395F69587957795DC
:102800006795B795F111F8CFFAF4BB0F11F460FF9B
:102810001BC06F5F7F4F8F4F9F4F16C0882311F0F3
:1028200096E911C0772321F09EE8872F762F05C007
:10283000662371F096E8862F70E060E02AF09A95A2
:10284000660F771F881FDAF7880F9695879597F997
:102850000895990F0008550FAA0BE0E8FEEF161631
:102860001706E807F907C0F012161306E407F50784
:1028700098F0621B730B840B950B39F40A2661F0F8
:10288000232B242B252B21F408950A2609F4A1409B
:10289000A6958FEF811D811D089597F99F6780E8A8
:1028A00070E060E008959FEF80EC089500240A94A2
:1028B0001616170618060906089500240A9412161B
:1028C0001306140605060895092E0394000C11F44E
:1028D000882352F0BB0F40F4BF2B11F460FF04C0FB
:1028E0006F5F7F4F8F4F9F4F089557FD9058440F54
:1028F000551F59F05F3F71F04795880F97FB991F5F
:1029000061F09F3F79F0879508951216130614061B
:10291000551FF2CF4695F1DF08C0161617061806A8
:10292000991FF1CF86957105610508940895E89483
:10293000BB2766277727CB0197F908950E94B1142A
:102940000C9464140E94561438F00E945D1420F018
:10295000952311F00C944D140C94531411240C94E1
:1029600098140E94751470F3959FC1F3950F50E071
:10297000551F629FF001729FBB27F00DB11D639F31
:10298000AA27F00DB11DAA1F649F6627B00DA11DD7
:10299000661F829F2227B00DA11D621F739FB00D7D
:1029A000A11D621F839FA00D611D221F749F3327ED
:1029B000A00D611D231F849F600D211D822F762F86
:1029C0006A2F11249F5750409AF0F1F088234AF063
:1029D000EE0FFF1FBB1F661F771F881F91505040CF
:1029E000A9F79E3F510580F00C944D140C94981457
:1029F0005F3FE4F3983ED4F3869577956795B79556
:102A0000F795E7959F5FC1F7FE2B880F911D96956F
:102A1000879597F90895AA1BBB1B51E107C0AA1F10
:102A2000BB1FA617B70710F0A61BB70B881F991F6F
:102A30005A95A9F780959095BC01CD010895EE0FA8
:102A4000FF1F0024001C0BBE0790F691E02D099497
:102A5000FC0188279927E89421912032E9F3293055
:102A600010F02E30C8F32B3241F02D3239F4689437
:102A700004C00E945216820F911D219120532A30CA
:102A8000C0F31EF4909581959F4F0895283008F06B
:102A900027E03327DA01990F311D87FD91600096F9
:102AA0006105710539F432602E5F3D9330E32A955C
:102AB000E1F708959F3F30F080387105610509F016
:102AC0003C5F3C5F3D93913008F08068911DDF933F
:102AD000CF931F930F93FF92EF92192F987F9695A4
:102AE000E92F96959695E90FFF27EE5DFE4F992702
:102AF0003327EE24FF24A701E701059008940794EB
:102B000028F4360FE71EF81E491F511D660F771F68
:102B1000881F991F0694A1F70590079428F4E70EE3
:102B2000F81E491F561FC11D770F881F991F661F6A
:102B30000694A1F70590079428F4F80E491F561F34
:102B4000C71FD11D880F991F661F771F0694A1F715
:102B50000590079420F4490F561FC71FD81F990FDF
:102B6000661F771F881F0694A9F784911095177028
:102B700041F0D695C79557954795F794E7941A95E0
:102B8000C1F7E8ECF0E068941590159135916591E6
:102B9000959105907FE27395E118F10A430B560B6E
:102BA000C90BD009C0F7E10CF11E431F561FC91F06
:102BB000D01D7EF4703311F48A95E6CFE89401506D
:102BC00030F0080F0AF40027021708F4202F23958D
:102BD000022F7A3328F079E37D932A95E9F710C024
:102BE0007D932A9589F6069497956795379517955D
:102BF0001794E118F10A430B560BC90BD00998F052
:102C000023957E9173957A3308F070E37C932013BB
:102C1000B8F77E9170617D9330F0839571E37D9379
:102C200070E32A95E1F71124EF90FF900F911F9127
:102C3000CF91DF91992787FD90950895FC0105902C
:102C4000615070400110D8F7809590958E0F9F1FAE
:102C50000895FB01DC0102C001900D9241505040EB
:102C6000D8F70895FB01DC0101900D920020E1F7F7
:102C70000895FB01DC014150504030F08D910190EE
:102C8000801919F40020B9F7881B990B0895FC01ED
:102C90006150704001900110D8F7809590958E0F8B
:102CA0009F1F08957AE0979F902D879F802D910D0B
:102CB000112408950F931F93CF93DF93009731F45E
:102CC0006115710519F480E090E03AC08B01EC01C8
:102CD0006EE070E081E090E00E94EC17FC01892B2F
:102CE00091F380E883830115110571F01387028742
:102CF00081E883838091510690915206892B21F4BB
:102D0000F0935206E09351062097C9F0D187C0870F
:102D10008381826083838091530690915406892B2E
:102D200071F4F0935406E093530680915506909108
:102D30005606892B21F4F0935606E0935506CF01F1
:102D4000DF91CF911F910F9108950F931F93CF9310
:102D5000DF93FB01238121FD03C08FEF9FEF28C08C
:102D600022FF16C0468157812481358142175307BF
:102D700044F4A081B1819D012F5F3F4F31832083B7
:102D80008C93268137812F5F3F4F3783268310C076
:102D9000EB01092F182F0084F185E02D0995892B6F
:102DA000E1F68E819F8101969F838E83812F902FE4
:102DB000DF91CF911F910F910895CF93DF93CDB7FE
:102DC000DEB7AE014B5F5F4FFA0161917191AF01C8
:102DD00080915306909154060E942D0FDF91CF9160
:102DE00008950F931F93CF93DF93E0915306F091D3
:102DF0005406238121FF1BC08C01D0E0C0E0F80104
:102E000081918F016091530670915406DB011896F1
:102E1000ED91FC911997882331F00995892B79F36D
:102E2000DFEFCFEFECCF8AE00995892B19F08FEF18
:102E30009FEF02C08D2F9C2FDF91CF911F910F919B
:102E400008950F931F93CF93DF93CDB7DEB72E97DF
:102E50000FB6F894DEBF0FBECDBF0D891E898F89D6
:102E6000988D26E02C831A83098397FF02C080E0A7
:102E700090E801979E838D83AE01455E5F4F698D1B
:102E80007A8DCE0101960E942D0F4D815E8157FDF6
:102E90000AC02F813885421753070CF49A01F801B4
:102EA000E20FF31F10822E960FB6F894DEBF0FBE0E
:102EB000CDBFDF91CF911F910F9108950F931F9375
:102EC000CF93DF93CDB7DEB72E970FB6F894DEBF62
:102ED0000FBECDBF0D891E8986E08C831A830983BE
:102EE0008FEF9FE79E838D83AE01475E5F4F6F89B3
:102EF000788DCE0101960E942D0F2F813885F80123
:102F0000E20FF31F10822E960FB6F894DEBF0FBEAD
:102F1000CDBFDF91CF911F910F910895FA01AA279C
:102F2000283051F1203181F1E8946F936E7F6E5F0C
:102F30007F4F8F4F9F4FAF4FB1E03ED0B4E03CD0BA
:102F4000670F781F891F9A1FA11D680F791F8A1F9D
:102F5000911DA11D6A0F711D811D911DA11D20D004
:102F600009F468943F912AE0269F11243019305DBE
:102F70003193DEF6CF010895462F4770405D4193AF
:102F8000B3E00FD0C9F7F6CF462F4F70405D4A33FC
:102F900018F0495D31FD4052419302D0A9F7EACFC4
:102FA000B4E0A6959795879577956795BA95C9F7F3
:102FB00000976105710508959B01AC010A2E0694E6
:102FC0005795479537952795BA95C9F7620F731F9F
:102FD000841F951FA01D08950F931F93CF93DF9318
:102FE000869F8001879F100D969F100D1124C801A8
:102FF0000E940818EC01009729F0A80160E070E039
:103000000E943519CE01DF91CF911F910F91089544
:10301000CF93DF938230910510F482E090E0E0914D
:103020005906F0915A0620E030E0C0E0D0E0309739
:1030300011F14081518148175907C0F048175907CD
:1030400061F482819381209719F09B838A832BC03E
:1030500090935A068093590626C02115310519F020
:103060004217530718F49A01BE01DF01EF010280F5
:10307000F381E02DDCCF2115310509F1281B390B37
:103080002430310590F412968D919C91139761151F
:10309000710521F0FB019383828304C090935A064B
:1030A00080935906FD01329644C0FD01E20FF31FE3
:1030B00081939193225031092D933C933AC02091F2
:1030C000570630915806232B41F42091040130918A
:1030D0000501309358062093570620910201309144
:1030E00003012115310541F42DB73EB7409106018A
:1030F00050910701241B350BE0915706F0915806BB
:10310000E217F307A0F42E1B3F0B2817390778F0BE
:10311000AC014E5F5F4F2417350748F04E0F5F1F1D
:1031200050935806409357068193919302C0E0E074
:10313000F0E0CF01DF91CF9108950F931F93CF93CC
:10314000DF93009709F48CC0FC013297138212823E
:103150000091590610915A060115110581F420813C
:103160003181820F931F20915706309158062817FE
:10317000390779F5F0935806E093570671C0D801E6
:1031800040E050E0AE17BF0750F412962D913C91ED
:103190001397AD012115310509F1D901F3CF9D0137
:1031A000DA013383228360817181860F971F821732
:1031B000930769F4EC0128813981260F371F2E5FB0
:1031C0003F4F318320838A819B8193838283452B68
:1031D00029F4F0935A06E093590642C01396FC93E3
:1031E000EE931297ED01499159919E01240F351FDD
:1031F000E217F30771F480819181840F951F029685
:1032000011969C938E938281938113969C938E93B7
:103210001297E0E0F0E0D80112968D919C911397FF
:10322000009719F0F8018C01F6CF8D919C919801CF
:103230002E5F3F4F820F931F209157063091580603
:103240002817390769F4309729F410925A0610921A
:10325000590602C013821282109358060093570633
:10326000DF91CF911F910F910895DC0101C06D9303
:1032700041505040E0F70895DC01CB01FC01E19999
:10328000FECF06C0FFBBEEBBE09A31960DB20D92A9
:1032900041505040B8F70895DC01CB0103C02D9197
:1032A0000E94571941505040D0F70895262FE199B8
:1032B000FECF9FBB8EBB2DBB0FB6F894E29AE19A6E
:0A32C0000FBE01960895F894FFCFA9
:1032CA00FFFF00005B062000524F5441544F52202A
:1032DA003E3E20524F544154494E472043570052D4
:1032EA004F5441544F52203E3E20524F544154496C
:1032FA004E472043435700524F5441544F52203EA9
:10330A003E20524F544154494E47204D414E55415B
:10331A004C20435700524F5441544F52203E3E20B6
:10332A00524F544154494E47204D414E55414C202D
:10333A0043435700524F5441544F52203E3E20536C
:10334A00544F50504544005441524745543A202561
:10335A00690A00544152474554206465673A20255A
:10336A00690A004552524F523A2025690A00524FC3
:10337A005441544F52203E3E2053544F50504544DE
:10338A002C2043435720454E44204C494D49542054
:10339A005245414348454400524F5441544F5220EC
:1033AA003E3E2053544F505045442C20435720450D
:1033BA004E44204C494D49542052454143484544C6
:1033CA000053524800494E46002573204552524F39
:1033DA00523A20524F5441544F5220535455434B62
:1033EA00002573202569004742560025732025329F
:1033FA002E32660047424300475248004743530073
:10340A00257320256920256920256920256920251D
:10341A006920252E316620252E31662025322E324E
:10342A00662025322E32660053525300534543001C
:10343A00534347004743430047544200257320251E
:10344A002E31660047544F005343490053524300FC
:10345A0025732025732025692025690053450025F9
:10346A00732025730053444F004849004C4F0049CC
:10347A006E697469616C697A696E672041444300B8
:10348A005374617274696E6720736F6674776172C0
:10349A00650053657474696E6773002D2D2D2D2D8B
:1034AA002D2D2D0048454144494E475F5343414C19
:1034BA00453A2025660A004C494D204343573A2095
:1034CA002569206465670A004C494D2043573A2014
:1034DA002569206465670A004C494D204343573AE1
:1034EA00202569204144430A004C494D2043573A5C
:1034FA00202569204144430A004348415247452058
:10350A00494E54455256414C3A2025690A005445C1
:10351A004D5020424F583A20256920252E316643C6
:10352A000A0054454D50204F55543A20256920250C
:10353A002E3166430A00524F5441544F5220484597
:10354A004144494E473A202569202D2025690A0021
:10355A005441524745542072656163686564004D61
:10356A00616E75616C20434357004D616E75616CE5
:10357A00204357004D414E55414C20524F5441541F
:0C358A00494F4E2053544F505045440010
:00000001FF
