:100000000C94E1000C9400010C9400010C9400018C
:100010000C9400010C9400010C9400010C9400015C
:100020000C9400010C9400010C9400010C9400014C
:100030000C9400010C9400010C9400010C945B07DB
:100040000C9400010C9400010C9400010C9400012C
:100050000C9400010C94940C0C9400010C9400017D
:100060000C9400010C9400010C9400010C9400010C
:100070000C9400010C9400010C9427070C94510778
:100080000C9400010C9400010C9400016B066D06A9
:100090006F0671067306AF06AF067506770679061A
:1000A0007B067D067F069A069C069E06A006A20693
:1000B000AF06AF06A406A606A806AA06AC06AE06BC
:1000C0006E616E00696E660000407A10F35A00A0FF
:1000D000724E18090010A5D4E80000E87648170011
:1000E00000E40B54020000CA9A3B000000E1F50551
:1000F000000080969800000040420F000000A0869B
:1001000001000000102700000000E80300000000CC
:100110006400000000000A00000000000100000070
:1001200000002C76D888DC674F0823DFC1DFAE598A
:10013000E1B1B796E5E3E453C63AE651997696E81D
:10014000E6C28426EB898C9B62ED407C6FFCEFBCA1
:100150009C9F40F2BAA56FA5F490055A2AF75C93CC
:100160006B6CF9676DC11BFCE0E40D47FEF520E602
:10017000B500D0ED902E0300943577050080841EE5
:10018000080000204E0A000000C80C333333330F40
:10019000986E12831141EF8D2114893BE65516CFDD
:1001A000FEE6DB18D1844B381BF77C1D901DA4BBE9
:1001B000E424203284725E228100C9F124ECA1E59E
:1001C0003D2711241FBECFEFD0E1DEBFCDBF13E02E
:1001D000A0E0B1E0ECE4F3E300E00BBF02C0079065
:1001E0000D92AE39B107D9F726E0AEE9B3E001C010
:1001F0001D92AD32B207E1F70E942B0D0C94A419A9
:100200000C94000026E63EE0E22FF32F3197F1F741
:100210008A95D1F70895CF93DF93D82FC0E0CD17FB
:1002200071F08AEF0E9402018AEF0E9402018AEFB8
:100230000E9402018AEF0E940201CF5FF0CFDF919E
:10024000CF9108952091DA043091DB04F901EE0F8B
:10025000FF1FEC52FB4F918380832230310528F041
:100260001092DB041092DA0406C02F5F3F4F3093E8
:10027000DB042093DA048091D4049091D50420917A
:10028000D6043091D7044091D8045091D90428174E
:10029000390740F04817590710F0C90106C0821706
:1002A000930740F04217530728F04817590730F4D6
:1002B000CA0108952817390708F4C9010895CF9392
:1002C000DF93CDB7DEB78EEFFE013596AFE9B3E031
:1002D00001900D928A95E1F781E080939E03DF9172
:1002E000CF9108956091CA047091CB0480E090E0B2
:1002F0000E94361422E63DE445E65CE30E94E814E1
:100300006093CC047093CD048093CE049093CF047B
:100310006091C8047091C9046F5F714071FD02C0A3
:10032000737001C07E6F072E000C880B990B0E9422
:1003300038142AE938E848E85CE30E94E81460933E
:10034000D0047093D1048093D2049093D304089581
:1003500088E091E00E943F17E8ECF4E082E0848FAF
:100360008689978990939F0480939E041092A0049D
:10037000C498C59A80E008958FE191E00E943F17EC
:10038000E8ECF4E081E0848F8689978990939F045C
:1003900080939E041092A004C598C49A80E00895AA
:1003A00087E391E00E943F17E8ECF4E084E0848F5B
:1003B0008689978990939F0480939E041092A0044D
:1003C000C498C59A80E0089585E591E00E943F17A2
:1003D000E8ECF4E083E0848F8689978990939F040A
:1003E00080939E041092A004C598C49A80E008955A
:1003F00084E791E00E943F171092E404C498C598E6
:1004000080E008954F925F926F927F928F929F92B9
:10041000AF92BF92CF92DF92EF92FF920F931F9312
:10042000CF93DF938C011F938F9387E891E09F9385
:100430008F930E942B17C090C204D090C304E09009
:10044000C404F090C5046091BC047091BD04072EF3
:10045000000C880B990B0E943814A70196010E948A
:100460008E134B015C016091C0047091C104072E92
:10047000000C880B990B0E9438149B01AC01C5013C
:10048000B4010E941C130E9400149B01B701A60135
:100490008091DC049091DD040E94D90C7C010E94C3
:1004A0001E0D6C010F900F900F900F9008171907F9
:1004B00009F490C0801B910B0E941E0DEC01C80135
:1004C0008C199D090E941E0D8C0197012C1B3D0B60
:1004D0008091BE049091BF042817390714F4CFEF20
:1004E000DFE7C090C004D090C104C701800F911F06
:1004F000C816D9060CF470C0C017D10724F4002721
:1005000011270C1B1D0B0F3F8FE7180709F469C05B
:100510008090C2049090C304A090C404B090C5041D
:100520006091BC047091BD04072E000C880B990BE0
:100530000E943814A50194010E948E132B013C01E6
:10054000B601DD0C880B990B0E9438149B01AC019D
:10055000C301B2010E941C130E9400149B01B5014B
:10056000A401C8018E0D9F1D0E94040D9093E30409
:100570008093E2042091DC043091DD0428173907D0
:1005800090F4DF91CF911F910F91FF90EF90DF904A
:10059000CF90BF90AF909F908F907F906F905F9023
:1005A0004F900C94A8018217930790F4DF91CF919C
:1005B0001F910F91FF90EF90DF90CF90BF90AF9081
:1005C0009F908F907F906F905F904F900C94BC01A4
:1005D0000E94F80180E006C0CF3F8FE7D80709F0FE
:1005E0008ECF8FEFDF91CF911F910F91FF90EF9002
:1005F000DF90CF90BF90AF909F908F907F906F9043
:100600005F904F90089590919D0421E030E0082E76
:1006100001C0220F0A94EAF7292B20939D041F9210
:100620008F938AE991E09F938F930E942B170F90ED
:100630000F900F900F90089585EA91E00E943F1768
:1006400082E00E940303C49880E008958FEC91E05B
:100650000E943F1781E00E940303C59880E008953F
:10066000A89A8AEF0E9402018AEF0E940201A898CC
:100670008091A1049091A20401969093A20480938A
:10068000A10408958F929F92AF92BF92CF92DF9272
:10069000FF920F931F93CF93DF93CDB7DEB7E2970F
:1006A0000FB6F894DEBF0FBECDBF633008F457C35A
:1006B0006A01F62E8C0143E050E068EF71E00E9481
:1006C0008316892B09F055C080919D049E012F5FF0
:1006D0003F4F590180FF19C08CEF91E09F938F939A
:1006E00080E092E09F938F931F9289E18F933F93D5
:1006F0002F930E946F17F50101900020E9F73197C1
:100700009F012A193B09A501EDC16CEF6F0DC801CE
:1007100004960E94A30C8093E0049093E1049F93BD
:100720008F9388EF91E09F938F9388E192E09F935E
:100730008F931F9288E08F93BF92AF920E946F17A2
:10074000F50101900020E9F731979F012A193B0933
:10075000A501B60180E10E94320B8091E0049091E6
:10076000E1040E9402020FB6F894DEBF0FBECDBFB7
:10077000F6C243E050E06EE172E0C8010E948316C9
:10078000892B89F40E9472018091CF048F9380910C
:10079000CE048F938091CD048F938091CC048F935E
:1007A0008EE192E017C043E050E06BE272E0C801D6
:1007B0000E948316892BF9F48091D3048F93809142
:1007C000D2048F938091D1048F938091D0048F9322
:1007D0008BE292E09F938F9382E292E09F938F93BC
:1007E0001F928AE08F938E010F5F1F4F1F930F930D
:1007F0000E946F176EC143E050E06FE272E0C801E3
:100800000E948316892B89F48091DF048F93809155
:10081000DE048F938FE292E09F938F9388E192E0C2
:100820009F938F931F9288E025C243E050E063E3DB
:1008300072E0C8010E948316892B09F072C00E94E1
:10084000720180919D049091DD049F939091DC044E
:100850009F939091D3049F939091D2049F939091F2
:10086000D1049F939091D0049F939091CF049F9334
:100870009091CE049F939091CD049F939091CC043E
:100880009F939091F1049F939091F0049F93909186
:10089000EF049F939091EE049F939091ED049F93AA
:1008A0009091EC049F939091EB049F939091EA04B4
:1008B0009F939091E1049F939091E0049F93909176
:1008C000DF049F939091DE049F939091E5041F9223
:1008D0009F939091E4041F929F931F928F9383E3C1
:1008E00092E09F938F9387E392E09F938F938E0183
:1008F0000F5F1F4F1F930F930E94AC17F8010190D9
:100900000020E9F731979F01201B310B0FB6F894B7
:10091000DEBF0FBECDBFA801B60180E10E94320B41
:100920001EC243E050E062E672E0C8010E948316F6
:10093000892B29F40E94F80162E672E00BC043E0C3
:1009400050E066E672E0C8010E948316892BC1F46C
:1009500066E672E08E010F5F1F4FC8010E947C1691
:10096000F80101900020E9F731979F01201B310B1E
:10097000A801B60180E10E94320B10929D04EFC1E4
:1009800043E050E06AE672E0C8010E948316892BBA
:10099000C1F46AE672E08E010F5F1F4FC8010E942A
:1009A0007C16F80101900020E9F731979F01201B88
:1009B000310BA801B60180E10E94320B0E94300386
:1009C000CEC143E050E06EE672E0C8010E9483169B
:1009D000892BB1F48091A1049091A2049F938F93ED
:1009E0008EE692E09F938F9388E192E09F938F939E
:1009F0008E010F5F1F4F1F930F930E94AC1769C0AA
:100A000043E050E062E772E0C8010E948316892B40
:100A100079F48091ED048F938091EC048F93809111
:100A2000EB048F938091EA048F9382E792E017C0E2
:100A300043E050E06EE772E0C8010E948316892B04
:100A4000E1F48091F1048F938091F0048F93809171
:100A5000EF048F938091EE048F938EE792E09F9343
:100A60008F9386E792E09F938F938E010F5F1F4FC6
:100A70001F930F930E94AC172CC043E050E062E834
:100A800072E0C8010E948316892B89F56CEF6F0D07
:100A9000C80104960E94A30C8093C6049093C704D7
:100AA0009F938F9382E892E09F938F9388E192E0E7
:100AB0009F938F938E010F5F1F4F1F930F930E9481
:100AC000AC174EE050E064E670E08AEB94E00E94E0
:100AD0008D19F80101900020E9F731979F01201B43
:100AE000310BA801B60180E10E94320B3CCE43E0FD
:100AF00050E066E872E0C8010E948316892B09F075
:100B0000C2C0580194E0A90EB11C42E050E06CE173
:100B100071E0C5010E948316892BC9F469EF6F0D3E
:100B2000C80107960E94A30C8093C0049093C1044F
:100B30002091DC043091DD042093BC043093BD048B
:100B40003F932F939F938F938CE191E021C042E0DC
:100B500050E06FE672E0C5010E948316892B69F5AB
:100B600069EF6F0DC80107960E94A30C8093BE0425
:100B70009093BF042091DC043091DD042093BA04EB
:100B80003093BB043F932F939F938F938FE692E014
:100B90009F938F9386E892E09F938F938AE892E0E9
:100BA0009F938F931F9280E18F938E010F5F1F4F52
:100BB0001F930F930E946F178CCF42E050E066E9BD
:100BC00072E0C5010E948316892B09F0C8C06091AC
:100BD000BC047091BD048091BA049091BB04681B61
:100BE000790B072E000C880B990B0E9438144B01CF
:100BF0005C016091C0047091C1048091BE04909129
:100C0000BF04681B790B072E000C880B990B0E9400
:100C100038149B01AC01C501B4010E948E134B0135
:100C20005C0120E030E0A9010E94891387FF04C025
:100C3000B7FAB094B7F8B0948092C2049092C3040B
:100C4000A092C404B092C5044EE050E064E670E0A7
:100C50008AEB94E00E948D1986E992E09F938F932E
:100C600086E892E09F938F9389E992E09F938F9318
:100C70001F928CE08F938E010F5F1F4F1F930F9376
:100C80000E946F1726CF43E050E06FE972E0C80181
:100C90000E948316892B09F062C0680134E0C30EFC
:100CA000D11C42E050E063EA72E0C6010E94831664
:100CB000892B39F569EF6F0DC80107960E94A30CC7
:100CC000FC01FF273297ED30F10508F048C0EA5BE0
:100CD000FF4F0C946915AC9A42C0AB9A40C0AA9AD7
:100CE0003EC0A99A3CC0A89A3AC0C69A38C0C79AD2
:100CF00036C0949A34C0959A32C0969A30C0979A6A
:100D00002EC042E050E066EA72E0C6010E948316FF
:100D1000892B29F569EF6F0DC80107960E94A30C76
:100D2000FC01FF273297ED30F105C8F4ED5AFF4F73
:100D30000C946915AC9813C0AB9811C0AA980FC059
:100D4000A9980DC0A8980BC0C69809C0C79807C03D
:100D5000949805C0959803C0969801C09798E2961C
:100D60000FB6F894DEBF0FBECDBFDF91CF911F91BC
:100D70000F91FF90DF90CF90BF90AF909F908F909A
:100D80000895CF92DF92EF92FF920F931F93CF932C
:100D9000DF93CDB7DEB728970FB6F894DEBF0FBE4E
:100DA000CDBF0DB71EB78D898039E9F52B893C89F8
:100DB000EDB6FEB6B9016C5071098DB79EB7861BB2
:100DC000970B0FB6F8949EBF0FBE8DBF01966C01B6
:100DD00088E0FE017696DE01119601900D928A95CB
:100DE000E1F79BE0A90141505109292F30E0241778
:100DF000350770F4F601E20FF31F3B97A6E1B0E070
:100E0000AC0FBD1FA20FB31F8C9180839F5FEDCFEE
:100E1000AE014F5F5F4FC6010E9442030FB6F894C8
:100E2000FEBE0FBEEDBE0FB6F8941EBF0FBE0DBFC7
:100E300028960FB6F894DEBF0FBECDBFDF91CF91DD
:100E40001F910F91FF90EF90DF90CF9008951F9228
:100E50000F920FB60F9211240BB60F922F933F9360
:100E60004F935F936F937F938F939F93AF93BF93B2
:100E7000EF93FF9380919C000E94B50BFF91EF913F
:100E8000BF91AF919F918F917F916F915F914F91A2
:100E90003F912F910F900BBE0F900FBE0F901F90A0
:100EA00018951F920F920FB60F9211240F900FBE3C
:100EB0000F901F9018951F920F920FB60F9211244A
:100EC0000BB60F922F933F934F935F936F937F9344
:100ED0008F939F93AF93BF93EF93FF938091AF0452
:100EE0009091B00401969093B0048093AF048091E8
:100EF000AB049091AC0401969093AC048093AB0446
:100F00008091AD049091AE0401969093AE048093CD
:100F1000AD048091A7049091A80401969093A80431
:100F20008093A7048091A9049091AA0401969093BC
:100F3000AA048093A9048091A5049091A604019627
:100F40009093A6048093A5048091AF049091B0047F
:100F500064EF71E00E945515892B19F48BB380580A
:100F60008BBB8091AF049091B00468EE73E00E9457
:100F70005515892B89F58091A3049091A4040196BD
:100F80009093A4048093A3048091E4048150823060
:100F900018F58091A0048330D0F020919E04309108
:100FA0009F048091DE049091DF042817390729F40B
:100FB0000E94F80180E00E9403038091DE0490917A
:100FC000DF0490939F0480939E041092A00480916C
:100FD000A0048F5F8093A0048091AF049091B0042F
:100FE00068EE73E00E945515892BC1F48091DD04F1
:100FF0008F938091DC048F938091DF048F93809195
:10100000DE048F9384E893E09F938F930E942B17C5
:101010000F900F900F900F900F900F900E94400C28
:10102000FF91EF91BF91AF919F918F917F916F91C0
:101030005F914F913F912F910F900BBE0F900FBE7C
:101040000F901F9018959F92AF92BF92CF92DF9210
:10105000EF92FF920F931F93CF93DF9300D000D0B6
:101060001F92CDB7DEB749835A836B837C838D8310
:10107000EDB6FEB62B813C81E2EFF4E080E090E03B
:10108000982E40815181452B79F425E0289FD0018D
:10109000299FB00D1124AE50BB4FFE013196019037
:1010A0000D922A95E1F77EC04281538124173507BE
:1010B00008F071C0CDB6DEB64AE050E0481B590BCF
:1010C00069E070E0681B790BE5E0E49F9001E59F23
:1010D000300D1124EDB7FEB7E21BF30B0FB6F894F9
:1010E000FEBF0FBEEDBF0DB71EB70F5F1F4FB12C78
:1010F00025E0A22E2B2D30E024173507BCF4A29E4C
:10110000D001A39EB00D1124A00FB11F280F391FCD
:10111000A29EF001A39EF00D1124EE50FB4F2A2D4C
:1011200001900D922A95E1F7B394E4CF25E0289F32
:10113000D001299FB00D1124AE50BB4FFE01319656
:1011400001900D922A95E1F740E055E0242F30E020
:1011500026173707CCF4FC01E20FF31F31965E9F90
:10116000D0015F9FB00D1124AE50BB4F529FF001D4
:10117000539FF00D1124E00FF11F252F01900D92C8
:101180002A95E1F74F5FE2CF0FB6F894DEBE0FBEAF
:10119000CDBE892D07C0019635968A30910509F09C
:1011A0006FCF8FEF0FB6F894FEBE0FBEEDBE0F905F
:1011B0000F900F900F900F90DF91CF911F910F9193
:1011C000FF90EF90DF90CF90BF90AF909F900895E9
:1011D000E2EFF4E020813181232B31F02281338151
:1011E000281B390B33832283359625E0E432F2073E
:1011F00089F70895CF93DF9300D000D01F92CDB729
:10120000DEB785E0E2EFF4E0DE01119601900D9289
:101210008A95E1F729813A814B815C816D8170E08B
:1012200080E090E00F900F900F900F900F90DF9163
:10123000CF91089581E02091F2043091F304232BA3
:1012400009F480E008958091F2049091F304892BD1
:1012500099F082EF94E025E0FC013596DC010190E5
:101260000D922A95E1F7059625E08F31920799F7BF
:101270001092200510921F050895E2EFF4E080E03F
:1012800020813181232B21F08F5F35968A30C1F781
:101290000895E2EFF4E01182108213821282148228
:1012A000359685E0E432F807B1F708950C944909C2
:1012B000FF920F931F93CF93DF93CDB7DEB7E297E3
:1012C0000FB6F894DEBF0FBECDBF22EF34E0A90108
:1012D00060E090E075E0DA011496EC91E81781F097
:1012E000A1E0B0E0AC0FBD1F769FA00DB11D112491
:1012F000FA01172F01900D921A95E1F76F5F01C067
:101300009F5F4B5F5F4FB5E044325B0721F7BE0143
:101310006F5F7F4F40E050E0892F90E00AE010E0DF
:10132000081B190B401751074CF4E5E0FE2EFB019A
:10133000D90101900D92FA94E1F706C0F9011182EA
:1013400010821482138212824F5F5F4F6B5F7F4F58
:101350002B5F3F4F4A30510529F7E2960FB6F894BC
:10136000DEBF0FBECDBFDF91CF911F910F91FF90D8
:101370000895E2EFF4E09481981739F0359695E0FE
:10138000E432F907C1F780E0089581E00895CF9332
:10139000DF93EC01488559858C819D8184179507E1
:1013A00000F59B018A819B810196BA010E94551527
:1013B0009B838A834E815F81849FF001859FF00D1E
:1013C000949FF00D11248A859B85B9018E0F9F1F74
:1013D0000E9473168C819D8101969D838C8380E091
:1013E00001C081E0DF91CF910895CF93DF93FC019D
:1013F00024813581232B21F19B01EC01468157810A
:1014000060817181469FC001479F900D569F900D4E
:10141000112462857385680F791FC9010E947316B4
:10142000888199810196688579850E9455159983EF
:1014300088838C819D8101979D838C8380E001C08E
:1014400081E0DF91CF910895FC0184819581892B02
:10145000A1F0CB014681578160817181469F900147
:10146000479F300D569F300D112462857385620FA2
:10147000731F0E94731680E0089581E0089521E0B3
:10148000FC0184819581892B09F020E0822F089549
:10149000FC01848195810895FC0124813581211509
:1014A000310579F0808191810196608571850E9476
:1014B000551591838083215031093583248381E040
:1014C000089580E00895FC01118210828085918545
:1014D00001979383828315821482089513BE87B780
:1014E000826087BF8CE083BF12BE86EE81BF089505
:1014F00015BC14BC8BE085BD86B7806886BF8EE1C5
:1015000083BD87B7806887BF08958FEF8ABB97EF49
:1015100097BB84BB8BEF81BB12B810926100109215
:101520006400929A939A88B388BB15BA82B382BB3F
:1015300083E08093650008959093900089B986E0D8
:101540008093950088E18AB908955D9BFECF8CB9A0
:1015500080E00895EF92FF920F931F93CF93DF9354
:101560007C018C01C62FD0E0C8018E199F098C1711
:101570009D0734F4F80181918F010E94A50AF4CFF0
:1015800080E0DF91CF911F910F91FF90EF90089530
:101590005F9BFECF8CB10895CF935F9BFECFCCB104
:1015A0008C2F0E94A50A8C2FCF9108958BB1807843
:1015B0000895909398008093990086E080939D0011
:1015C00088E980939A00089590919B0095FFFCCF45
:1015D00080939C0080E00895EF92FF920F931F93F9
:1015E000CF93DF937C018C01C62FD0E0C8018E1908
:1015F0009F098C179D0734F4F80181918F010E9497
:10160000E40AF4CF80E0DF91CF911F910F91FF901A
:10161000EF90089580919B0087FFFCCF8CB10895D7
:10162000CF9380919B0087FFFCCFC0919C008C2FB3
:101630000E94E40A8C2FCF91089580919B008078BE
:1016400008951092B7041092B9041092B804089546
:101650009093B5048093B4047093B3046093B20480
:101660000C94210B8F929F92AF92BF92CF92DF92F8
:10167000EF92FF920F931F93CF93C82F5B016A01E4
:10168000022FE091B404F091B5048EE70995E09142
:10169000B404F091B50480E0099510E0E091B40441
:1016A000F091B5048EE0800F0995E091B404F091BB
:1016B000B5048C2F0995E091B404F091B5048091A4
:1016C000B10409958091B104C80F8F5F8093B10474
:1016D000750188E0A80EB11C4701E091B404F091B7
:1016E000B504D7018D917D010995F4018081C80F62
:1016F000EA14FB0489F7E091B404F091B5048FEF8C
:101700000995E091B404F091B5048EEF0995C350AA
:10171000E091B404F091B50480E00995E091B4043F
:10172000F091B50480E0099576010C0D1D1DE09146
:10173000B404F091B504E016F10649F06701D70151
:101740008D917D010995F6018081C80FF0CF8C2F16
:101750008095CF911F910F91FF90EF90DF90CF90E8
:10176000BF90AF909F908F9009941092B6042091F3
:10177000B8043091B904A9014F5F5F4F5093B90489
:101780004093B8049091B704913009F06DC0413096
:10179000510529F4109224058093250508954230BF
:1017A000510561F42091240530912505A901482BAC
:1017B000CA0190932505809324050895433051056F
:1017C00019F4809326054BC0E0912405F09125057E
:1017D000B901625071096E177F07B1F5909121062A
:1017E000890F8F3F09F58DB79EB78E5F91090FB6B0
:1017F000F8949EBF0FBE8DBFADB7BEB711968EEFEA
:10180000E4E2F5E001900D928A95E1F7E091B204EF
:10181000F091B30409954DB75EB742505F4F0FB6D4
:10182000F8945EBF0FBE4DBF1092B704809124059F
:1018300090912505019720E0422F50E04817590765
:1018400010F42F5FF9CF08954F3F510509F050F480
:10185000F901EC5DFA4F808390912106890F809306
:10186000210608950C94210B8E3749F481E0809372
:10187000B7041092B9041092B8041092210608958A
:101880008091B6048F5F8093B6048091B60485364C
:1018900020F00E94210B1092B604089533983798D7
:1018A000089596B1987F892B86B9089527B12F7333
:1018B00030E4839FC0011124822B87B90895379AA1
:1018C000359887E00E94510C83E00E94560C3D98A9
:1018D000339A10922206089597B1907E8F71892BCA
:1018E00087B90895349A369A089586B18074089518
:1018F0001092220697B1907E8F71892B87B9349A06
:10190000369A3699FECF84B125B190E0922B089596
:1019100084B125B190E0922B08950E94780C9695A1
:1019200087959695879508951F920F920FB60F92FF
:1019300011248F9381E0809322068F910F900FBE28
:101940000F901F9018950F931F93CF93DF93CDB7F0
:10195000DEB7482F792F0DB71EB7262F30E0C9010B
:101960000196EDB7FEB7E81BF90B0FB6F894FEBF72
:101970000FBEEDBF8DB79EB70196542FDC01E42F4B
:10198000F72F4E2F451B461718F441914D93F9CF71
:10199000FC01E20FF31F4AE040830E9472150FB66C
:1019A000F8941EBF0FBE0DBFDF91CF911F910F9115
:1019B0000895CF92DF92EF92FF92CF93DF936A0167
:1019C0007B01E901BC01990F880B990B0E94381427
:1019D000A70196010E948E136B017C01BE01DD0FF1
:1019E000880B990B0E9438149B01AC01C701B6010A
:1019F0000E941C130E940014CB01DF91CF91FF9035
:101A0000EF90DF90CF900895CF92DF92EF92FF9208
:101A10006A017B01820F931FBC01990F880B990B00
:101A20000E943814A70196010E94E8140E94001435
:101A3000CB01FF90EF90DF90CF90089597FF03C008
:101A400088599E4FFBCF883621E092071CF08856BC
:101A50009140F9CF0895F8940E94850A0E946E0A79
:101A600087E090E00E949C0A6CEC7AE085EA9AE0BC
:101A70000E94A4168FE090E00E94D90A8FEF0E9486
:101A8000020189EA92E00E943F170E945F0C6FE515
:101A900071E084EE9AE00E94280B1092E404109208
:101AA000E5044EE050E064E670E08AEB94E00E94CA
:101AB0007D1978948FEF0E9402018AEB92E00E94D8
:101AC0003F178CEC92E00E943F1785ED92E00E9458
:101AD0003F178091C5048F938091C4048F938091A8
:101AE000C3048F938091C2048F938EED92E09F93F5
:101AF0008F930E942B178091BF048F938091BE0417
:101B00008F9381EF92E09F938F930E942B17809188
:101B1000C1048F938091C0048F9382E093E09F93E0
:101B20008F930E942B178091BB048F938091BA04EE
:101B30008F9382E193E09F938F930E942B17809164
:101B4000BD048F938091BC048F9383E293E09F93B5
:101B50008F930E942B178091C7048F938091C604A6
:101B60008F9383E393E09F938F930E942B1781E0E1
:101B70000E94780C0E9422019093DD048093DC0483
:101B800081E00E94780C0E9422019093DD048093F2
:101B9000DC0481E00E94780C0E9422019093DD0415
:101BA0008093DC040E9430038DB79EB74A960FB62F
:101BB000F8949EBF0FBE8DBFCCE3D0E08091A3040C
:101BC0009091A404BE010E9455158091C604909185
:101BD000C7046817790730F00E9430031092A404FC
:101BE0001092A3048091A5049091A604893E93408D
:101BF00008F450C087E00E94780C9093E70480932B
:101C0000E604BC0180E090E00E94361420E030E061
:101C100040E250E40E94E81420E030E04AEF53E450
:101C20000E941C1320E030E040E251E40E948E1339
:101C30006093EA047093EB048093EC049093ED04BA
:101C400085E00E94780C9093E9048093E804BC013D
:101C500080E090E00E94361420E030E040E250E462
:101C60000E94E81420E030E04AEF53E40E941C1385
:101C700020E030E040E251E40E948E136093EE04D5
:101C80007093EF048093F0049093F1041092A604F3
:101C90001092A5048091AD049091AE04853F9140CF
:101CA00058F086E00E94780C9093CB048093CA048D
:101CB0001092AE041092AD048091AB049091AC04EC
:101CC000853F914058F084E00E94780C9093C904BD
:101CD0008093C8041092AC041092AB048091A904C4
:101CE0009091AA04893E9340B0F08091E5040E9B48
:101CF00002C0816001C08E7F8093E5048091E5047D
:101D00000F9B02C0826001C08D7F8093E50410921A
:101D1000AA041092A9048091A7049091A8048B3F73
:101D2000910508F4BDC081E00E94780C0E94220158
:101D30008C019093DD048093DC04C090C204D090A9
:101D4000C304E090C404F090C5046091BC04709199
:101D5000BD04072E000C880B990B0E943814A701B4
:101D600096010E948E134B015C016091C00470913A
:101D7000C104072E000C880B990B0E9438149B019C
:101D8000AC01C501B4010E941C130E9400149B0108
:101D9000B701A601C8010E94D90C0E941E0D9093A4
:101DA000DF048093DE048091E40481508230B8F433
:101DB0008091DC049091DD042091BA043091BB0441
:101DC0002817390718F00E941C0309C02091BC0491
:101DD0003091BD048217930710F00E942603809172
:101DE000E404823089F42091DC043091DD04809198
:101DF000E2049091E3048217930730F40E94F80103
:101E000088E493E00E943F178091E404813089F4D4
:101E10002091DC043091DD048091E2049091E30490
:101E20008217930730F00E94F80188E493E00E9443
:101E30003F178091630083708093010190910101AD
:101E400080910001981741F1809100018330D1F415
:101E50008091010180FD09C080919D0480FD18C022
:101E60000E94E40187E593E011C08091010181FDAA
:101E70000FC080919D0480FD0BC00E94D00182E6BE
:101E800093E004C00E94F8018CE693E00E943F17A3
:101E900080910101809300011092A8041092A70480
:101EA00080919E03882309F489CE8DB79EB78E5FFB
:101EB00091090FB6F8949EBF0FBE8DBFADB7BEB7E8
:101EC00011968EEFEFE9F3E001900D928A95E1F71C
:101ED0000E94C10610929E038DB79EB782509F4FFD
:101EE0000FB6F8949EBF0FBE8DBF68CE2F923F9263
:101EF0004F925F926F927F928F929F92AF92BF921A
:101F0000CF92DF92EF92FF920F931F93CF93DF93C5
:101F1000CDB7DEB760970FB6F894DEBF0FBECDBF6A
:101F20007C011B016A01FC0117821682838181FFFB
:101F300044C39E012F5F3F4F3901F7019381F101A7
:101F400093FD859193FF81911F01882309F431C38B
:101F5000853239F493FD859193FF81911F0185327C
:101F600039F4B70190E00E94EF1656016501E5CF04
:101F700010E0512C912CFFE1F915D8F08B3279F05B
:101F800038F4803279F08332A1F4F92DF0612EC05B
:101F90008D3261F0803369F4292D21602DC0392DF7
:101FA0003260932E892D8460982E2AC0E92DE86036
:101FB00015C097FC2DC020ED280F2A3088F496FE1E
:101FC00006C03AE0139F200D1124122F19C08AE099
:101FD000589E200D1124522EE92DE0629E2E10C035
:101FE0008E3231F496FCE5C2F92DF0649F2E08C0C4
:101FF0008C3621F4292D2068922E02C0883641F4B7
:10200000F10193FD859193FF81911F018111B3CF60
:102010009BEB980F933020F4992D9061805E07C060
:102020009BE9980F933008F066C1992D9F7E96FF2B
:1020300016E09F73992E853619F49064992E08C086
:10204000863621F4392F3068932E02C011111150B9
:1020500097FE07C01C3350F444244394410E27E0FC
:102060000BC0183038F027E017E005C027E09CE3EC
:10207000492E02C0212F412C560184E0A80EB11C2C
:10208000F6016081718182819381042DA3010E94F8
:1020900090156C01F981FC87F0FF02C0F3FF06C0C8
:1020A00091FC06C092FE06C000E205C00DE203C02E
:1020B0000BE201C000E08C858C7019F001115AC24E
:1020C0009BC297FE10C04C0CFC85F4FF04C08A81B3
:1020D000813309F44A94141474F528E0241578F532
:1020E00088E0482E2CC096FC2AC0812F90E08C15E9
:1020F0009D059CF03CEFC3163FEFD30674F0892D8D
:102100008068982E0AC0E2E0F0E0EC0FFD1FE10FBE
:10211000F11D8081803319F411501111F4CF97FE15
:102120000EC044244394410E812F90E0C816D90676
:102130002CF41C1904C04424439401C010E097FE01
:1021400006C01C141D0434F4C601019605C085E0C8
:1021500090E002C081E090E001110196112331F07E
:10216000212F30E02F5F3F4F820F931F252D30E04E
:102170008217930714F4581A01C0512C892D8970C5
:1021800049F4552039F0B70180E290E00E94EF1643
:102190005A94F7CF002329F0B701802F90E00E94D6
:1021A000EF1693FC09C0552039F0B70180E390E0A9
:1021B0000E94EF165A94F7CF97FE4CC04601D7FE07
:1021C00002C0812C912CC60188199909F301E80FEE
:1021D000F91FFE87ED87960124193109388B2F8767
:1021E000012F10E01195019511093FEF8316930619
:1021F00029F4B7018EE290E00E94EF16C814D904CA
:102200004CF08F8598898815990524F4ED85FE8515
:10221000818101C080E3F1E08F1A91082D853E8510
:102220002F5F3F4F3E872D87801691062CF0B70118
:1022300090E00E94EF16D9CFC814D90441F49A81D6
:10224000963320F4953319F43C8534FF81E3B701CC
:1022500090E04EC08A81813319F09C859F7E9C87D7
:10226000B70190E00E94EF16111105C094FC18C050
:1022700085E690E017C0B7018EE290E00E94EF166D
:102280001E5F82E001E0080FF301E80FF11D80817D
:10229000B70190E00E94EF16802F0113F3CFE6CF35
:1022A00085E490E0B7010E94EF16D7FC06C0C11488
:1022B000D10441F4EC85E4FF05C0D194C194D10868
:1022C0008DE201C08BE2B70190E00E94EF1680E33F
:1022D0002AE0C216D1042CF08F5FFAE0CF1AD108A1
:1022E000F7CFB70190E00E94EF16B701C601C09684
:1022F0000E94EF1654C1833631F0833779F083356D
:1023000009F056C020C0560132E0A30EB11CF60100
:102310008081898301E010E0630112C05601F2E080
:10232000AF0EB11CF601C080D18096FE03C0612FB4
:1023300070E002C06FEF7FEFC6010E9491168C0122
:10234000F92DFF7714C0560122E0A20EB11CF60150
:10235000C080D18096FE03C0612F70E002C06FEF95
:102360007FEFC6010E9468168C01F92DF0689F2E40
:10237000F3FD1AC0852D90E008171907A8F4B701DE
:1023800080E290E00E94EF165A94F4CFF60197FC99
:10239000859197FE81916F01B70190E00E94EF1641
:1023A00051105A94015011090115110579F7F7C020
:1023B000843611F0893661F5560197FE09C024E094
:1023C000A20EB11CF60160817181828193810AC0E5
:1023D000F2E0AF0EB11CF60160817181072E000C96
:1023E000880B990BF92DFF769F2E97FF09C09095CA
:1023F0008095709561957F4F8F4F9F4FF0689F2E0E
:102400002AE030E0A3010E94DB17C82EC6183FC0A7
:10241000092D853721F40F7E2AE030E01DC0097FA9
:102420008F3691F018F4883559F0C3C0803719F011
:10243000883711F0BEC0006104FF09C0046007C006
:1024400094FE08C0066006C028E030E005C020E128
:1024500030E002C020E132E0560107FF09C084E00D
:10246000A80EB11CF601608171818281938108C040
:10247000F2E0AF0EB11CF6016081718180E090E066
:10248000A3010E94DB17C82EC6180F77902E96FE68
:102490000BC0092D0E7FC11650F494FE0AC092FCA9
:1024A00008C0092D0E7E05C0DC2C092D03C0DC2CD4
:1024B00001C0D12E04FF0DC0FE01EC0DF11D808185
:1024C000803311F4097E09C002FF06C0D394D3946F
:1024D00004C0802F867809F0D39403FD11C000FF5B
:1024E00006C01C2DD51480F4150D1D190DC0D51472
:1024F00058F4B70180E290E00E94EF16D394F7CF32
:10250000D51410F45D1801C0512C04FF10C0B701A0
:1025100080E390E00E94EF1602FF17C001FD03C0A8
:1025200088E790E002C088E590E0B7010CC0802FFA
:10253000867859F001FF02C08BE201C080E207FDFE
:102540008DE2B70190E00E94EF16C11638F4B70192
:1025500080E390E00E94EF161150F7CFCA94F30188
:10256000EC0DF11D8081B70190E00E94EF16C110C3
:10257000F5CF15C0F4E0F51560F584E0581A93FE28
:102580001FC0011127C02C8523FF2AC000EC10E0DA
:10259000392D3071932EF8018491811124C055207A
:1025A00009F4E4CCB70180E290E00E94EF165A945F
:1025B000F6CFF7018681978126C08FEF9FEF23C06A
:1025C000B70180E290E00E94EF165A945110F8CFC4
:1025D000D8CF512CB701802F90E00E94EF16D3CFB7
:1025E00004EC10E0D5CF91108052B70190E00E942A
:1025F000EF160F5F1F4FCFCF23E0251510F483E0B8
:10260000BDCF512CC0CF60960FB6F894DEBF0FBE81
:10261000CDBFDF91CF911F910F91FF90EF90DF9091
:10262000CF90BF90AF909F908F907F906F905F9072
:102630004F903F902F9008955058BB27AA270E9493
:1026400034130C94AE140E94A01438F00E94A71406
:1026500020F039F49F3F19F426F40C949D140EF4E5
:10266000E095E7FB0C949714E92F0E94BF1458F3F0
:10267000BA17620773078407950720F079F4A6F567
:102680000C94E1140EF4E0950B2EBA2FA02D0B0143
:10269000B90190010C01CA01A0011124FF27591BA7
:1026A00099F0593F50F4503E68F11A16F040A22FAD
:1026B000232F342F4427585FF3CF4695379527951E
:1026C000A795F0405395C9F77EF41F16BA0B620B1D
:1026D000730B840BBAF09150A1F0FF0FBB1F661F64
:1026E000771F881FC2F70EC0BA0F621F731F841FA7
:1026F00048F4879577956795B795F7959E3F08F0CD
:10270000B0CF9395880F08F09927EE0F979587958E
:1027100008950E94731408F481E008950E94A213A2
:102720000C94AE140E94A71458F00E94A01440F01C
:1027300029F45F3F29F00C94971451110C94E21482
:102740000C949D140E94BF1468F39923B1F3552390
:1027500091F3951B550BBB27AA27621773078407B4
:1027600038F09F5F5F4F220F331F441FAA1FA9F34A
:1027700035D00E2E3AF0E0E832D091505040E69538
:10278000001CCAF72BD0FE2F29D0660F771F881F99
:10279000BB1F261737074807AB07B0E809F0BB0B8C
:1027A000802DBF01FF2793585F4F3AF09E3F5105A0
:1027B00078F00C9497140C94E2145F3FE4F3983E85
:1027C000D4F3869577956795B795F7959F5FC9F789
:1027D000880F911D9695879597F90895E1E0660F0A
:1027E000771F881FBB1F621773078407BA0720F083
:1027F000621B730B840BBA0BEE1F88F7E0950895EC
:102800000E9407146894B1110C94E21408950E9478
:10281000C71488F09F5798F0B92F9927B751B0F097
:10282000E1F0660F771F881F991F1AF0BA95C9F754
:1028300014C0B13091F00E94E114B1E008950C94FD
:10284000E114672F782F8827B85F39F0B93FCCF3B0
:10285000869577956795B395D9F73EF490958095D1
:10286000709561957F4F8F4F9F4F0895E89409C0F1
:1028700097FB3EF490958095709561957F4F8F4FB3
:102880009F4F9923A9F0F92F96E9BB279395F695C9
:10289000879577956795B795F111F8CFFAF4BB0F47
:1028A00011F460FF1BC06F5F7F4F8F4F9F4F16C0AB
:1028B000882311F096E911C0772321F09EE8872F35
:1028C000762F05C0662371F096E8862F70E060E0F1
:1028D0002AF09A95660F771F881FDAF7880F96956A
:1028E000879597F90895990F0008550FAA0BE0E80E
:1028F000FEEF16161706E807F907C0F012161306C2
:10290000E407F50798F0621B730B840B950B39F401
:102910000A2661F0232B242B252B21F408950A2667
:1029200009F4A140A6958FEF811D811D089597F9A7
:102930009F6780E870E060E008959FEF80EC089565
:1029400000240A941616170618060906089500248E
:102950000A9412161306140605060895092E039408
:10296000000C11F4882352F0BB0F40F4BF2B11F47C
:1029700060FF04C06F5F7F4F8F4F9F4F089557FDDB
:102980009058440F551F59F05F3F71F04795880FDD
:1029900097FB991F61F09F3F79F087950895121674
:1029A00013061406551FF2CF4695F1DF08C0161620
:1029B00017061806991FF1CF8695710561050894D1
:1029C0000895E894BB2766277727CB0197F90895E8
:1029D0000E94FB140C94AE140E94A01438F00E94C4
:1029E000A71420F0952311F00C9497140C949D14C7
:1029F00011240C94E2140E94BF1470F3959FC1F34C
:102A0000950F50E0551F629FF001729FBB27F00D9C
:102A1000B11D639FAA27F00DB11DAA1F649F6627F1
:102A2000B00DA11D661F829F2227B00DA11D621F40
:102A3000739FB00DA11D621F839FA00D611D221FFA
:102A4000749F3327A00D611D231F849F600D211DDE
:102A5000822F762F6A2F11249F5750409AF0F1F061
:102A600088234AF0EE0FFF1FBB1F661F771F881FCA
:102A700091505040A9F79E3F510580F00C94971457
:102A80000C94E2145F3FE4F3983ED4F38695779577
:102A90006795B795F795E7959F5FC1F7FE2B880F70
:102AA000911D9695879597F90895AA1BBB1B51E137
:102AB00007C0AA1FBB1FA617B70710F0A61BB70BAE
:102AC000881F991F5A95A9F780959095BC01CD0153
:102AD0000895EE0FFF1F0024001C0BBE0790F69117
:102AE000E02D0994FC0188279927E8942191203250
:102AF000E9F3293010F02E30C8F32B3241F02D329B
:102B000039F4689404C00E949C16820F911D219193
:102B100020532A30C0F31EF4909581959F4F08955D
:102B2000283008F027E03327DA01990F311D87FD9F
:102B3000916000966105710539F432602E5F3D9316
:102B400030E32A95E1F708959F3F30F08038710512
:102B5000610509F03C5F3C5F3D93913008F080686F
:102B6000911DDF93CF931F930F93FF92EF92192F35
:102B7000987F9695E92F96959695E90FFF27EE5D3C
:102B8000FE4F99273327EE24FF24A701E701059084
:102B90000894079428F4360FE71EF81E491F511DAC
:102BA000660F771F881F991F0694A1F70590079459
:102BB00028F4E70EF81E491F561FC11D770F881F06
:102BC000991F661F0694A1F70590079428F4F80E44
:102BD000491F561FC71FD11D880F991F661F771FDA
:102BE0000694A1F70590079420F4490F561FC71FBC
:102BF000D81F990F661F771F881F0694A9F7849125
:102C00001095177041F0D695C79557954795F7944D
:102C1000E7941A95C1F7E8ECF0E0689415901591E7
:102C200035916591959105907FE27395E118F10AD0
:102C3000430B560BC90BD009C0F7E10CF11E431F23
:102C4000561FC91FD01D7EF4703311F48A95E6CF4C
:102C5000E894015030F0080F0AF40027021708F436
:102C6000202F2395022F7A3328F079E37D932A953C
:102C7000E9F710C07D932A9589F606949795679594
:102C8000379517951794E118F10A430B560BC90BAA
:102C9000D00998F023957E9173957A3308F070E30C
:102CA0007C932013B8F77E9170617D9330F083950B
:102CB00071E37D9370E32A95E1F71124EF90FF9083
:102CC0000F911F91CF91DF91992787FD90950895DE
:102CD000FC010590615070400110D8F780959095E7
:102CE0008E0F9F1F0895FB01DC0102C001900D9221
:102CF00041505040D8F70895FB01DC0101900D923E
:102D00000020E1F70895FB01DC014150504030F014
:102D10008D910190801919F40020B9F7881B990B47
:102D20000895FC016150704001900110D8F7809522
:102D300090958E0F9F1F08957AE0979F902D879F03
:102D4000802D910D112408950F931F93CF93DF933E
:102D5000009731F46115710519F480E090E03AC0F4
:102D60008B01EC016EE070E081E090E00E94391888
:102D7000FC01892B91F380E883830115110571F023
:102D80001387028781E8838380912306909124062C
:102D9000892B21F4F0932406E09323062097C9F0B1
:102DA000D187C0878381826083838091250690913B
:102DB0002606892B71F4F0932606E0932506809170
:102DC000270690912806892B21F4F0932806E0939A
:102DD0002706CF01DF91CF911F910F9108950F9397
:102DE0001F93CF93DF93FB01238121FD03C08FEF5E
:102DF0009FEF2CC022FF16C0468157812481358168
:102E00004217530744F4A081B1819D012F5F3F4FCA
:102E1000318320838C93268137812F5F3F4F378307
:102E2000268314C08B01EC01FB010084F185E02DA9
:102E30000995892BE1F6D80116968D919C911797EB
:102E4000019617969C938E931697CE01DF91CF91A2
:102E50001F910F910895CF93DF93CDB7DEB7AE01E9
:102E60004B5F5F4FFA0161917191AF01809125062F
:102E7000909126060E94760FDF91CF9108950F93CF
:102E80001F93CF93DF93E0912506F09126062381CF
:102E900021FF1BC08C01D0E0C0E0F80181918F01BF
:102EA0006091250670912606DB011896ED91FC9144
:102EB0001997882331F00995892B79F3DFEFCFEF4C
:102EC000ECCF8AE00995892B19F08FEF9FEF02C0B4
:102ED0008D2F9C2FDF91CF911F910F9108950F930C
:102EE0001F93CF93DF93CDB7DEB72E970FB6F8942D
:102EF000DEBF0FBECDBF0D891E898F89988D26E05C
:102F00002C831A83098397FF02C080E090E8019721
:102F10009E838D83AE01455E5F4F698D7A8DCE01B4
:102F200001960E94760F4D815E8157FD0AC02F8168
:102F30003885421753070CF49A01F801E20FF31F8A
:102F400010822E960FB6F894DEBF0FBECDBFDF9174
:102F5000CF911F910F9108950F931F93CF93DF93FC
:102F6000CDB7DEB72E970FB6F894DEBF0FBECDBF3C
:102F70000D891E8986E08C831A8309838FEF9FE772
:102F80009E838D83AE01475E5F4F6F89788DCE0142
:102F900001960E94760FEF81F885E00FF11F1082F5
:102FA0002E960FB6F894DEBF0FBECDBFDF91CF9146
:102FB0001F910F910895FA01AA27283051F120316D
:102FC00081F1E8946F936E7F6E5F7F4F8F4F9F4FBD
:102FD000AF4FB1E03ED0B4E03CD0670F781F891FFF
:102FE0009A1FA11D680F791F8A1F911DA11D6A0FCD
:102FF000711D811D911DA11D20D009F468943F9180
:103000002AE0269F11243019305D3193DEF6CF017E
:103010000895462F4770405D4193B3E00FD0C9F744
:10302000F6CF462F4F70405D4A3318F0495D31FDB1
:103030004052419302D0A9F7EACFB4E0A695979504
:10304000879577956795BA95C9F7009761057105DA
:1030500008959B01AC010A2E069457954795379524
:103060002795BA95C9F7620F731F841F951FA01D7E
:1030700008950F931F93CF93DF93869F8001879FBF
:10308000100D969F100D1124C8010E945518EC01D7
:10309000009729F0A80160E070E00E947619CE0147
:1030A000DF91CF911F910F9108950F931F93CF93AD
:1030B000DF938230910510F482E090E0E0912B06DE
:1030C000F0912C0620E030E0A0E0B0E0309719F15C
:1030D000408151810281138148175907C8F0841734
:1030E000950769F4109731F012960C931297139686
:1030F0001C9327C000932B0610932C0622C0211589
:10310000310519F04217530718F49A01BD01EF0178
:10311000DF01F801DBCF21153105F9F0281B390B50
:103120002430310580F48A819B816115710521F07D
:10313000FB019383828304C090932C0680932B061B
:10314000FE01329644C0FE01E20FF31F819391937A
:1031500022503109398328833AC0209129063091C1
:103160002A06232B41F4209104013091050130936C
:103170002A0620932906209102013091030121158E
:10318000310541F42DB73EB740910601509107013A
:10319000241B350BE0912906F0912A06E217F3076C
:1031A000A0F42E1B3F0B2817390778F0AC014E5FB7
:1031B0005F4F2417350748F04E0F5F1F50932A06C4
:1031C000409329068193919302C0E0E0F0E0CF01A3
:1031D000DF91CF911F910F910895CF93DF930097C7
:1031E00009F481C0FC01329713821282A0912B0650
:1031F000B0912C06109781F420813181820F931FAA
:103200002091290630912A062817390751F5F093A5
:103210002A06E093290667C0ED0120E030E0CE17D2
:10322000DF0740F44A815B819E0141155105F1F0B1
:10323000EA01F5CFD383C28340815181840F951F6A
:10324000C817D90759F488819981840F951F029670
:10325000918380838A819B819383828321153105A9
:1032600029F4F0932C06E0932B063DC0E901FB8383
:10327000EA8349915991C40FD51FEC17FD0761F4FA
:1032800080819181840F951F0296E901998388833B
:10329000828193819B838A83E0E0F0E012968D9196
:1032A0009C911397009719F0FD01DC01F7CF8D91E8
:1032B0009C9111979D012E5F3F4F820F931F20918C
:1032C000290630912A062817390769F4309729F41E
:1032D00010922C0610922B0602C013821282B09319
:1032E0002A06A0932906DF91CF910895DC0101C041
:1032F0006D9341505040E0F70895DC01CB01FC0193
:10330000E199FECF06C0FFBBEEBBE09A31960DB24D
:103310000D9241505040B8F70895DC01CB0103C035
:103320002D910E94981941505040D0F70895262FB2
:10333000E199FECF9FBB8EBB2DBB0FB6F894E29AEE
:0C334000E19A0FBE01960895F894FFCFAB
:10334C00FFFF00002D062000524F5441544F5220D5
:10335C003E3E20524F544154494E47204357005251
:10336C004F5441544F52203E3E20524F54415449E9
:10337C004E472043435700524F5441544F52203E26
:10338C003E20524F544154494E47204D414E5541D9
:10339C004C20435700524F5441544F52203E3E2034
:1033AC00524F544154494E47204D414E55414C20AB
:1033BC0043435700524F5441544F52203E3E2053EA
:1033CC00544F5050454400544152474554205345A6
:1033DC005420544F3A2025690A004552524F523A14
:1033EC002025690A00524F5441544F52203E3E2032
:1033FC0053544F505045442C2043435720454E4482
:10340C00204C494D495420524541434845440052B3
:10341C004F5441544F52203E3E2053544F50504530
:10342C00442C20435720454E44204C494D495420B0
:10343C00524541434845440053524800494E4600CA
:10344C002573204552524F523A20524F5441544FFB
:10345C005220535455434B00257320256900474295
:10346C00560025732025322E326600474243004712
:10347C0052480047435300257320256920256920B5
:10348C00256920256920256920252E316620252EC9
:10349C0031662025322E32662025322E32662025CA
:1034AC00690053525300534543005343470047436D
:1034BC00430047544200257320252E3166004754A3
:1034CC004F0053434900535243002573202573206A
:1034DC002569202569005345002573202573005369
:1034EC00444F004849004C4F00496E697469616C47
:1034FC00697A696E67204144430053746172746940
:10350C006E6720736F6674776172650053657474AF
:10351C00696E6773002D2D2D2D2D2D2D2D004845F9
:10352C004144494E475F5343414C453A2025660A76
:10353C00004C494D204343573A2025692064656768
:10354C000A004C494D2043573A2025692064656791
:10355C000A004C494D204343573A202569204144E9
:10356C00430A004C494D2043573A202569204144D9
:10357C00430A0043484152474520494E5445525650
:10358C00414C3A2025690A00544152474554207257
:10359C00656163686564004D616E75616C204343C1
:1035AC0057004D616E75616C204357004D414E556F
:1035BC00414C20524F544154494F4E2053544F507C
:1035CC0050454400524F5441544F522048454144B9
:0E35DC00494E473A202569202D2025690A0016
:00000001FF
