:100000000C94C7000C94E6000C94E6000C94E600F7
:100010000C94E6000C94E6000C94E6000C94E600C8
:100020000C94E6000C94E6000C94E6000C94E600B8
:100030000C94E6000C94E6000C94E6000C94A801E5
:100040000C94E6000C94E6000C94E6000C94E60098
:100050000C94E6000C94F1100C94E6000C94E6006D
:100060000C94E6000C94E6000C94E6000C94E60078
:100070000C94E6000C94E6000C9426020C949E016D
:100080000C94E6000C94E6000C94E6006E616E00A1
:10009000696E660000407A10F35A00A0724E18098B
:1000A0000010A5D4E80000E87648170000E40B54DF
:1000B000020000CA9A3B000000E1F50500008096AE
:1000C0009800000040420F000000A08601000000E0
:1000D000102700000000E80300000000640000009A
:1000E00000000A00000000000100000000002C7663
:1000F000D888DC674F0823DFC1DFAE59E1B1B7967E
:10010000E5E3E453C63AE651997696E8E6C28426DA
:10011000EB898C9B62ED407C6FFCEFBC9C9F40F2B6
:10012000BAA56FA5F490055A2AF75C936B6CF96732
:100130006DC11BFCE0E40D47FEF520E6B500D0EDF7
:10014000902E0300943577050080841E080000205F
:100150004E0A000000C80C333333330F986E1283FD
:100160001141EF8D2114893BE65516CFFEE6DB18D1
:10017000D1844B381BF77C1D901DA4BBE424203296
:1001800084725E228100C9F124ECA1E53D2711248F
:100190001FBECFEFD0E1DEBFCDBF13E0A0E0B1E0E6
:1001A000E8EFF6E300E00BBF02C007900D92A63D1A
:1001B000B107D9F716E0A6EDB3E001C01D92A53650
:1001C000B107E1F70E944C090C947A1B0C940000D3
:1001D00026E63EE0E22FF32F3197F1F78A95D1F72B
:1001E000089590E04AEF26E63EE019C0E22FF32F93
:1001F0003197F1F74A95D1F7E22FF32F3197F1F7C5
:100200004A95D1F7E22FF32F3197F1F74A95D1F7BD
:10021000E22FF32F3197F1F74A95D1F79F5F9817A7
:1002200008F4E4CF08952091120530911305F901E7
:10023000EE0FFF1FE45FFA4F918380832230310578
:1002400028F0109213051092120506C02F5F3F4F41
:10025000309313052093120540910C0550910D0524
:1002600060910E0570910F05809110059091110518
:100270006417750748F08417950730F09C016817DC
:10028000790778F49B010DC04617570728F08617A9
:10029000970710F09C0101C09B014217530708F417
:1002A0009A01C9010895609102057091030580E0EB
:1002B00090E00E944B1626EA3DEE4FED5CE30E9473
:1002C000FD166093040570930505809306059093D1
:1002D000070580910005909101058F5F91409C0179
:1002E000337091FF02C09C013E6FB901882777FDF2
:1002F0008095982F0E944D162AE535E545E05DE38F
:100300000E94FD16609308057093090580930A0505
:1003100090930B050895DF93CF93CDB7DEB7ABEE87
:10032000B3E0FE0135968EEF01900D928150E1F71A
:1003300081E08093E503CF91DF9108951F920F92A2
:100340000FB60F9211240F900FBE0F901F901895AB
:100350001F920F920FB60F920BB60F9211242F938C
:100360003F934F935F936F937F938F939F93AF933D
:10037000BF93EF93FF938091D6039091D70301969B
:100380009093D7038093D6038091D8039091D9039B
:1003900001969093D9038093D8038091DA039091CA
:1003A000DB0301969093DB038093DA038091DC03F7
:1003B0009091DD0301969093DD038093DC0380919F
:1003C000DE039091DF0301969093DF038093DE03B9
:1003D0008091E0039091E10301969093E103809373
:1003E000E0038091D6039091D70364EF71E00E94FF
:1003F0006017892B19F48BB380588BBB8091D6037F
:100400009091D70368EE73E00E946017892B49F43E
:100410008091E2039091E30301969093E30380932C
:10042000E2030E949010FF91EF91BF91AF919F91D5
:100430008F917F916F915F914F913F912F910F908D
:100440000BBE0F900FBE0F901F9018951F920F922A
:100450000FB60F920BB60F9211242F933F934F9329
:100460005F936F937F938F939F93AF93BF93EF931C
:10047000FF9380919C000E94FC0FFF91EF91BF9130
:10048000AF919F918F917F916F915F914F913F912C
:100490002F910F900BBE0F900FBE0F901F901895CD
:1004A000A89A8AEF0E94E8008AEF0E94E800A898C4
:1004B0008091E6039091E70301969093E703809380
:1004C000E603089580E091E00E94291910921C052E
:1004D000C498C59880E0089583E191E00E942919AD
:1004E00083E080931C0580911605909117059093E9
:1004F000E9038093E8031092EA03C598C49A80E068
:10050000089582E391E00E94291984E080931C05FC
:1005100080911605909117059093E9038093E80365
:100520001092EA03C498C59A80E0089580E591E0AE
:100530000E94291981E080931C05809116059091F5
:1005400017059093E9038093E8031092EA03C59896
:10055000C49A80E0089588E691E00E94291982E01B
:1005600080931C0580911605909117059093E903DF
:100570008093E8031092EA03C498C59A80E0089536
:100580009091E40321E030E0082E02C0220F331FD7
:100590000A94E2F7922B9093E40300D000D0EDB7D9
:1005A000FEB731962FE731E0ADB7BEB712963C9358
:1005B0002E931197828313820E9417190F900F9028
:1005C0000F900F9008958AE891E00E94291981E028
:1005D0000E94C002C59880E0089583EB91E00E94DC
:1005E000291982E00E94C002C49880E00895AF9269
:1005F000BF92CF92DF92EF92FF920F931F93CF9310
:10060000DF93EC014091FA045091FB046091FC04EB
:100610007091FD042091F6043091F7048091140547
:10062000909115050E9400110E944F11C817D9071B
:1006300009F46FC0A090FA04B090FB04C090FC04D1
:10064000D090FD046091F4047091F504882777FD43
:100650008095982F0E944D16A60195010E94B21513
:100660007B018C016091F8047091F904882777FD73
:100670008095982F0E944D169B01AC01C801B701CF
:100680000E9449150E941A168B019C01CE01B601E9
:10069000A50198010E94331180931A0590931B05C0
:1006A00000D000D0EDB7FEB731962DED31E0ADB7FB
:1006B000BEB712963C932E931197828393830E9428
:1006C000171989EE91E0EDB7FEB79283818380918F
:1006D000180590911905948383830E94171920911E
:1006E0001A0530911B0580911405909115050F9006
:1006F0000F900F900F908217930718F40E94AB028F
:1007000009C02817390718F40E94960203C00E94F6
:10071000620280E0DF91CF911F910F91FF90EF90E7
:10072000DF90CF90BF90AF9008956F927F928F929D
:100730009F92AF92BF92DF92EF92FF920F931F931F
:10074000DF93CF93CDB7DEB7E2970FB6F894DEBF55
:100750000FBECDBF8C01D62E5A0122E0261708F01D
:1007600016C5E9EF8E2EE1E09E2EB40143E050E085
:100770000E947E18009709F080C08091E4037E01FA
:100780000894E11CF11C80FF33C08DB79EB7089719
:100790000FB6F8949EBF0FBE8DBFEDB7FEB7319672
:1007A000ADB7BEB71296FC92EE92119789E190E038
:1007B000938382838DEF91E09583848385E192E03A
:1007C000978386830E945E19F70101900020E9F764
:1007D0003197EE19FF092DB73EB7285F3F4F0FB68F
:1007E000F8943EBF0FBE2DBF80E1B501A70193C0B5
:1007F0003CEFD30EC80104966D2D0E945E118093CC
:10080000180590931905ADB7BEB71A970FB6F894AF
:10081000BEBF0FBEADBFEDB7FEB731961296FC92CC
:10082000EE92119728E030E03383228329E132E011
:100830003583248397828682808791870E945E1900
:10084000F70101900020E9F73197EE19FF092DB764
:100850003EB7265F3F4F0FB6F8943EBF0FBE2DBF89
:1008600080E1B501A7012E2F0E94820F809118050B
:10087000909119050E94F7028AC47FE1E72E72E089
:10088000F72EC801B70143E050E00E947E180097A0
:1008900009F045C00E9453018DB79EB70C970FB663
:1008A000F8949EBF0FBE8DBFEDB7FEB731968E0197
:1008B0000F5F1F4FADB7BEB712961C930E931197E3
:1008C0008AE090E09383828383E292E0958384833D
:1008D000F782E6828091040590910505A0910605B6
:1008E000B091070580879187A287B3870E945E1920
:1008F000F80101900020E9F73197E01BF10B2DB7CB
:100900003EB7245F3F4F0FB6F8943EBF0FBE2DBFDA
:1009100080E1B501A8012E2F0E94820F38C46CE23D
:10092000E62E62E0F62EC801B70143E050E00E94D7
:100930007E18009739F58DB79EB70C970FB6F894CF
:100940009EBF0FBE8DBFEDB7FEB731968E010F5F14
:100950001F4FADB7BEB712961C930E9311978AE046
:1009600090E09383828383E292E095838483F7828D
:10097000E6828091080590910905A0910A05B09141
:100980000B05B0CF50E3E52E52E0F52EC801B701BC
:1009900043E050E00E947E18009719F58DB79EB78E
:1009A0000A970FB6F8949EBF0FBE8DBFEDB7FEB786
:1009B00031968E010F5F1F4FADB7BEB712961C93D5
:1009C0000E93119788E090E09383828389E192E00F
:1009D00095838483F782E6828091160590911705AE
:1009E00027C344E3E42E42E0F42EC801B70143E0FC
:1009F00050E00E947E18009709F072C00E945301D7
:100A00002091E4038DB79EB780970FB6F8949EBFF0
:100A10000FBE8DBFEDB7FEB731968E010F5F1F4F32
:100A2000ADB7BEB712961C930E93119788E392E070
:100A300093838283F582E4822683178280911C054A
:100A40008087118680911D05828713868091160507
:100A500090911705958784878091180590911905C5
:100A6000978786878091220590912305A091240580
:100A7000B0912505808B918BA28BB38B809126053D
:100A800090912705A0912805B0912905848B958B1D
:100A9000A68BB78B8091040590910505A091060562
:100AA000B0910705808F918FA28FB38F8091080539
:100AB00090910905A0910A05B0910B05848F958F3F
:100AC000A68FB78F0E949C19F80101900020E9F7CA
:100AD0003197E01BF10B2DB73EB7205E3F4F13CF90
:100AE00030E6E32E32E0F32EC801B70143E050E0D8
:100AF0000E947E18009719F40E9462020CC027E63B
:100B0000E22E22E0F22EC801B70143E050E00E943D
:100B10007E180097C9F58DB79EB708970FB6F89461
:100B20009EBF0FBE8DBFEDB7FEB731968E010F5F32
:100B30001F4FADB7BEB712961C930E93119784E06A
:100B400090E09383828384E692E095838483F782A6
:100B5000E6820E945E19F80101900020E9F73197C2
:100B6000E01BF10B2DB73EB7285F3F4F0FB6F8944F
:100B70003EBF0FBE2DBF80E1B501A8012E2F0E9400
:100B8000820F1092E40303C39BE6E92E92E0F92E54
:100B9000C801B70143E050E00E947E180097C9F5F4
:100BA0008DB79EB708970FB6F8949EBF0FBE8DBF46
:100BB000EDB7FEB731968E010F5F1F4FADB7BEB7D1
:100BC00012961C930E93119784E090E09383828396
:100BD00084E692E095838483F782E6820E945E1920
:100BE000F80101900020E9F73197E01BF10B2DB7D8
:100BF0003EB7285F3F4F0FB6F8943EBF0FBE2DBFE4
:100C000080E1B501A8012E2F0E94820F0E945002A0
:100C1000BEC2C8016FE672E043E050E00E947E1859
:100C2000009781F52091E6033091E7038DB79EB7D9
:100C300008970FB6F8949EBF0FBE8DBFEDB7FEB7F5
:100C400031968E010F5F1F4FADB7BEB712961C9342
:100C50000E93119789E192E0938382838FE692E06D
:100C600095838483378326830E949C19F801019021
:100C70000020E9F73197E01BF10B2DB73EB7285F55
:100C80003F4F41CE83E7E82E82E0F82EC801B7013E
:100C900043E050E00E947E18009719F58DB79EB78B
:100CA0000A970FB6F8949EBF0FBE8DBFEDB7FEB783
:100CB00031968E010F5F1F4FADB7BEB712961C93D2
:100CC0000E93119787E792E093838283F582E48203
:100CD0008091220590912305A0912405B0912505CE
:100CE0002EC0BFE7EB2EB2E0FB2EC801B70143E0F8
:100CF00050E00E947E18009749F58DB79EB70A977D
:100D00000FB6F8949EBF0FBE8DBFEDB7FEB73196FC
:100D10008E010F5F1F4FADB7BEB712961C930E9397
:100D2000119787E792E093838283F582E482809132
:100D3000260590912705A0912805B0912905868365
:100D40009783A087B1870E949C1976C1A3E8EA2EF9
:100D5000A2E0FA2EC801B70143E050E00E947E18DD
:100D6000009709F040C03CEFD30EC80104966D2DEA
:100D70000E945E119093FF048093FE04ADB7BEB74E
:100D800018970FB6F894BEBF0FBEADBFEDB7FEB754
:100D900031968E010F5F1F4F12961C930E93119781
:100DA00029E132E033832283F582E48297838683CC
:100DB0000E949C192DB73EB7285F3F4F0FB6F8949D
:100DC0003EBF0FBE2DBF82EF94E064E670E04EE0C0
:100DD00050E00E943B1AF80101900020E9F731979A
:100DE000E01BF10B95CDF7E88F2EF2E09F2EC801A6
:100DF000B40143E050E00E947E18009709F028C13A
:100E0000E4E0EE2EF12CE00EF11E7BE8672E72E09E
:100E1000772EC701B30142E050E00E947E18009790
:100E2000C1F539EFD30EC80107966D2D0E945E11F2
:100E30009093F9048093F8042091140530911505DE
:100E40003093F5042093F4048DB79EB70E970FB638
:100E5000F8949EBF0FBE8DBFEDB7FEB731968E01E1
:100E60000F5F1F4FADB7BEB712961C930E9311972D
:100E700080E190E0938382838EE892E0958384837F
:100E800097828682718660868091F8049091F90439
:100E900044C06AE9662E62E0762EC701B30142E0E3
:100EA00050E00E947E18009709F049C039EFD30E38
:100EB000C80107966D2D0E945E119093F7048093F0
:100EC000F60420911405309115053093F304209316
:100ED000F2048DB79EB70E970FB6F8949EBF0FBE63
:100EE0008DBFEDB7FEB731968E010F5F1F4FADB7C7
:100EF000BEB712961C930E93119780E190E09383F6
:100F000082838EE892E095838483978286827186BD
:100F100060868091F6049091F704938782873587E5
:100F200024870E945E19F80101900020E9F73197AB
:100F3000E01BF10B2DB73EB7225F3F4FE4CCC7015A
:100F40006DE972E042E050E00E947E18009709F0DF
:100F50001EC16091F4047091F5042091F204309167
:100F6000F304621B730B882777FD8095982F0E94EE
:100F70004D167B018C016091F8047091F904209169
:100F8000F6043091F704621B730B882777FD809578
:100F9000982F0E944D169B01AC01C801B7010E9419
:100FA000B2157B018C016093FA047093FB0480936B
:100FB000FC049093FD0420E030E040E050E00E940B
:100FC000AE1588235CF4D801C701B0588093FA04A9
:100FD0009093FB04A093FC04B093FD0482EF94E093
:100FE00064E670E04EE050E00E943B1A8DB79EB779
:100FF0000A970FB6F8949EBF0FBE8DBFEDB7FEB730
:1010000031968E010F5F1F4FADB7BEB712961C937E
:101010000E9311978CE090E09383828380EA92E0B4
:101020009583848387E892E0978386838DE992E0B5
:10103000918780870E945E19F80101900020E9F7EE
:101040003197E01BF10B2DB73EB7265F3F4F5BCCCE
:10105000C80166EA72E043E050E00E947E18009703
:1010600009F095C054E0E52EF12CE00EF11EC70109
:101070006AEA72E042E050E00E947E18009709F0B0
:1010800041C039EFD30EC80107966D2D0E945E1145
:10109000893061F18A3080F4843011F1853030F488
:1010A0008230D1F0833009F072C018C08530D1F0A1
:1010B000863009F06CC018C08C30F1F08D3030F4FF
:1010C0008A30B1F08B3009F062C014C08D30B1F0BD
:1010D0008E3009F05CC014C0AC9A59C0AB9A57C0AE
:1010E000AA9A55C0A99A53C0A89A51C0C69A4FC08F
:1010F000C79A4DC0949A4BC0959A49C0969A47C0DA
:10110000979A45C0C7016DEA72E042E050E00E9444
:101110007E180097E1F589EFD80EC80107966D2D6E
:101120000E945E11893041F18A3070F48430F1F010
:10113000853028F48230B1F0833049F515C0853010
:10114000B9F0863021F516C08C30E1F08D3028F4EE
:101150008A30A1F08B30D9F413C08D30A9F08E30D5
:10116000B1F414C0AC9813C0AB9811C0AA980FC0CA
:10117000A9980DC0A8980BC0C69809C0C79807C009
:10118000949805C0959803C0969801C09798E296E8
:101190000FB6F894DEBF0FBECDBFCF91DF911F9188
:1011A0000F91FF90EF90DF90BF90AF909F908F9046
:1011B0007F906F900895AF92BF92CF92DF92EF929F
:1011C000FF920F931F93DF93CF93CDB7DEB728978E
:1011D0000FB6F894DEBF0FBECDBFCDB6DEB68F8999
:1011E000803909F043C0BDB6AEB66D897E896C50BA
:1011F00070408DB79EB7861B970B0FB6F8949EBFB5
:101200000FBE8DBF0DB71EB70F5F1F4FDE011196CA
:10121000FE01789688E001900D928150E1F72D89CA
:101220003E89215030404BE0F8E1EF2EF12CEC0EDE
:10123000FD1E09C0F801EA0FFB1F3B97AE0DBF1D55
:101240008C9180834F5FA42FB0E0A217B30790F377
:10125000C801AE014F5F5F4F0E9495038B2D9A2D01
:101260009C010FB6F8943EBF0FBE2DBF0FB6F89489
:10127000DEBE0FBECDBE28960FB6F894DEBF0FBE01
:10128000CDBFCF91DF911F910F91FF90EF90DF9035
:10129000CF90BF90AF9008952F923F924F925F9260
:1012A0006F927F928F929F92AF92BF92CF92DF9276
:1012B000EF92FF920F931F93CF93DF93F8940E94C6
:1012C000E90E0E94D20E87E090E00E94000F89E0B4
:1012D0009FE062E27FE00E949F188FE090E00E9412
:1012E0002C0F8FEF0E94E80080EB92E00E942919FA
:1012F0000E94A21087E39FE06BE871E00E946C0FF0
:1013000010921C0510921D0582EF94E064E670E0D7
:101310004EE050E00E942B1A78948FEF0E94E80074
:1013200081EC92E00E94291983ED92E00E94291934
:101330008CED92E00E94291900D000D000D085EEFB
:1013400092E0ADB7BEB712969C938E9311978091A1
:10135000FA049091FB04A091FC04B091FD04EDB758
:10136000FEB783839483A583B6830E9417190F90D9
:101370000F9088EF92E0ADB7BEB712969C938E9314
:1013800011978091F6049091F70414969C938E9394
:1013900013970E94171989E093E0EDB7FEB7928387
:1013A00081838091F8049091F904948383830E944F
:1013B000171989E193E0ADB7BEB712969C938E934F
:1013C00011978091F2049091F30414969C938E935C
:1013D00013970E9417198AE293E0EDB7FEB7928344
:1013E00081838091F4049091F504948383830E9417
:1013F00017198AE393E0ADB7BEB712969C938E930C
:1014000011978091FE049091FF0414969C938E9303
:1014100013970E9417190F900F900F900F9081E073
:101420000E94CD100E94130190931505809314051E
:1014300081E00E94CD100E941301909315058093C6
:10144000140581E00E94CD100E94130190931505B0
:10145000809314050E9450021FE4612E13E0712E48
:10146000B3E64B2EB3E05B2EA6E12A2EA5E03A2E82
:10147000C7E7D3E08091E2039091E3036CE370E06F
:101480000E9460178091FE049091FF04681779070D
:1014900030F00E9450021092E3031092E203809118
:1014A000E0039091E103895E934008F497C087E0E0
:1014B0000E94CD1090931F0580931E05A0E0B0E020
:1014C000BC01CD010E944B162DEC3CEC4CEC52E4DF
:1014D0000E94491520E030E04AEF5EE30E94FD16CD
:1014E0009B01AC01209322053093230540932405F2
:1014F00050932505EDB7FEB738970FB6F894FEBFA9
:101500000FBEEDBF3196ADB7BEB712967C926E920C
:10151000119720911E0530911F0533832283CB0143
:10152000DA0184839583A683B7830E941719EDB7E8
:10153000FEB738960FB6F894FEBF0FBEEDBF85E03C
:101540000E94CD109093210580932005A0E0B0E08B
:10155000BC01CD010E944B162DEC3CEC4CEC52E44E
:101560000E94491520E030E04AEF5EE30E94FD163C
:101570009B01AC0120932605309327054093280555
:10158000509329052DB73EB7285030400FB6F89438
:101590003EBF0FBE2DBFEDB7FEB73196ADB7BEB79C
:1015A00012965C924E921197209120053091210560
:1015B00033832283CB01DA0184839583A683B783A7
:1015C0000E9417191092E1031092E003EDB7FEB7E5
:1015D00038960FB6F894FEBF0FBEEDBF8091DA03C8
:1015E0009091DB03855F914058F086E00E94CD101A
:1015F00090930305809302051092DB031092DA03A7
:101600008091D8039091D903855F914058F084E090
:101610000E94CD1090930105809300051092D9038C
:101620001092D8038091DE039091DF03895E93408E
:10163000D0F00E9B04C080911D05816003C0809195
:101640001D058E7F80931D050F9B04C080911D0595
:10165000826003C080911D058D7F80931D051092CF
:10166000DF031092DE038091DC039091DD038B3F5A
:10167000910508F4DEC081E00E94CD100E941301A4
:101680004C019093150580931405A090FA04B09036
:10169000FB04C090FC04D090FD046091F4047091B0
:1016A000F504882777FD8095982F0E944D16A60196
:1016B00095010E94B2157B018C016091F804709134
:1016C000F904882777FD8095982F0E944D169B017D
:1016D000AC01C801B7010E9449150E941A168B017E
:1016E0009C01C401B601A50198010E9400110E944D
:1016F0004F1180931605D10111969C9300D000D014
:1017000000D0EDB7FEB73196ADB7BEB71296DC93F9
:10171000CE93119782839383809114059091150540
:10172000958384830E94171980911C058150EDB721
:10173000FEB736960FB6F894FEBF0FBEEDBF8230EF
:10174000B8F420911405309115058091F204909120
:10175000F3048217930718F00E94ED0209C08091EC
:10176000F4049091F5042817390710F00E94E30261
:1017700080911C05823089F4209114053091150563
:1017800080911A0590911B058217930730F40E94EF
:10179000620281E993E00E94291980911C05813041
:1017A00089F4209114053091150580911A059091C6
:1017B0001B058217930730F00E94620281E993E0D3
:1017C0000E9429198091630083708093CD039091CA
:1017D000CD038091CE03981741F18091CE038330E1
:1017E000D1F48091CD0380FD09C08091E40380FD98
:1017F00018C00E946C0280EA93E011C08091CD0372
:1018000081FD0FC08091E40380FD0BC00E94810226
:101810008BEA93E004C00E94620285EB93E00E9491
:1018200029198091CD038093CE031092DD0310928D
:10183000DC038091E503882309F41CCE2DB73EB765
:101840002E5F30400FB6F8943EBF0FBE2DBFADB730
:10185000BEB71196EBEEF3E08EEF01900D92815042
:10186000E1F70E94DB081092E5038DB79EB7825026
:101870009F4F0FB6F8949EBF0FBE8DBFFBCDEAE21F
:10188000F5E011821082138212821482359685E06F
:10189000EC35F807B1F708959C01EAE2F5E08081A4
:1018A0009181892B31F082819381821B930B9383E9
:1018B0008283359685E0EC35F80789F70895DF9344
:1018C000CF9300D000D00F92CDB7DEB7DE011196D6
:1018D000EAE2F5E085E001900D928150E1F729817F
:1018E0003A814B815C816D8170E090E00F900F90A8
:1018F0000F900F900F90CF91DF91089520E080918D
:101900002A0590912B05892B09F021E0822F08955B
:1019100080912A0590912B05892B99F08FE295E013
:10192000DC011597FC0125E001900D922150E1F7B3
:10193000059625E08C35920799F71092580510927C
:1019400057050895EAE2F5E020E080819181892B36
:1019500021F02F5F35962A30C1F7822F0895EAE2F1
:10196000F5E011821082138212821482359685E08E
:10197000EC35F807B1F70895CF92DF92EF92FF921E
:101980000F931F93DF93CF93CDB7DEB7E2970FB6D8
:10199000F894DEBF0FBECDBF182FAAE2B5E050E02D
:1019A00040E0BE016F5F7F4F14968C9114978117B2
:1019B000B9F0842F90E07C01EE0CFF1CEE0CFF1CB4
:1019C000E80EF91EE60EF71E9D0185E0F901019073
:1019D0009F01F70101927F018150C1F74F5F01C064
:1019E0005F5F1596F5E0AC35BF07F1F67E01089410
:1019F000E11CF11CFD01F29720E030E0052F10E022
:101A00004AE050E0401B510B2417350764F4BF0136
:101A1000670185E0D6010D906D01DB010D92BD01DE
:101A20008150C1F705C01182108214821382128284
:101A30002F5F3F4F85E090E0E80EF91E35962A3083
:101A4000310511F7C801E2960FB6F894DEBF0FBE5C
:101A5000CDBFCF91DF911F910F91FF90EF90DF905D
:101A6000CF900895982FEEE2F5E08081891711F468
:101A700081E00895359685E0E036F807B1F780E01B
:101A800008959F92AF92BF92CF92DF92EF92FF9212
:101A90000F931F93DF93CF9300D000D00F92CDB759
:101AA000DEB749835A836B837C838D83CDB6DEB6E4
:101AB0000B811C81EAE2F5E040E050E0B42E808129
:101AC0009181892B99F41C830B83FA01EE0FFF1F80
:101AD000EE0FFF1FE40FF51FE65DFA4FDE011196D2
:101AE00085E00D9001928150E1F78DC08281938154
:101AF0000817190708F07EC0ADB69EB62AE030E0A0
:101B0000241B350BC901880F991F880F991F820F5D
:101B1000931F6DB77EB7681B790B0FB6F8947EBF25
:101B20000FBE6DBFEDB6FEB60894E11CF11C60E07F
:101B30001AC0DC01AA0FBB1FAA0FBB1FA80FB91F39
:101B4000840F951FFC01EE0FFF1FEE0FFF1FE80F24
:101B5000F91FAE0DBF1DE65DFA4F85E001900D92B5
:101B60008150E1F76F5F862F90E0821793070CF3A7
:101B70001C830B83FA01EE0FFF1FEE0FFF1FE40F14
:101B8000F51FE65DFA4FDE01119685E00D9001929A
:101B90008150E1F710E069E070E0641B750B1CC038
:101BA000C901840F951F0196DC01AA0FBB1FAA0F64
:101BB000BB1FA80FB91FF901EE0FFF1FEE0FFF1F8C
:101BC000E20FF31FA65DBA4FEE0DFF1D85E00190F9
:101BD0000D928150E1F71F5F212F30E02617370764
:101BE000FCF28A2D992D9C010FB6F8943EBF0FBED2
:101BF0002DBF09C04F5F5F4F35964A30510509F040
:101C00005DCFBB24BA948B2D0FB6F894DEBE0FBE09
:101C1000CDBE0F900F900F900F900F90CF91DF914E
:101C20001F910F91FF90EF90DF90CF90BF90AF90FA
:101C30009F90089520E0FC0184819581892B09F40F
:101C400021E0822F0895FC01848195810895FC0193
:101C5000248135812115310511F480E008958081BA
:101C600091816085718501960E94601791838083C0
:101C7000215030403583248381E00895FC01118296
:101C800010828085918501979383828315821482C7
:101C90000895DC0114968D919C911597892B11F470
:101CA00081E008951696ED91FC9117978D919C9186
:101CB00011979C01E29FC001E39F900DF29F900D50
:101CC00011241A962D913C911B97280F391FCB0197
:101CD000B901AF010E94751880E00895CF93DF939A
:101CE000EC018C819D81892B11F481E024C0EE816F
:101CF000FF81888199819C01E29FC001E39F900D43
:101D0000F29F900D11242A853B85280F391FCB01A6
:101D1000B901AF010E94751888819981688579851C
:101D200001960E946017998388838C819D81019719
:101D30009D838C8380E0DF91CF9108951F93CF9393
:101D4000DF93EC01462F172F688579858C819D8163
:101D50008617970710F081E021C08A819B81019648
:101D60000E9460179C019B838A83EE81FF812E9FD6
:101D7000C0012F9F900D3E9F900D11242A853B8519
:101D8000280F391FC901642F712FAF010E947518E8
:101D90008C819D8101969D838C8380E0DF91CF9122
:101DA0001F91089513BE87B7826087BF8CE083BF01
:101DB00012BE86EE81BF089515BC14BC8BE085BDB4
:101DC00086B7806886BF8EE183BD87B7806887BF8E
:101DD00008959FEF9ABB87EF87BB94BB8BEF81BBC6
:101DE00012B81092610010926400929A939A88B38C
:101DF00088BB15BA82B382BB83E0809365000895E7
:101E00009093900089B986E08093950088E18AB923
:101E100008955D9BFECF8CB980E00895FC0180E0C1
:101E200090E070E006C020815D9BFECF31962CB91A
:101E3000019686179707BCF380E008955F9BFECF5D
:101E40008CB108955F9BFECF8CB15D9BFECF8CB9AA
:101E500008958BB1807808959093980080939900AD
:101E600086E080939D0088E980939A000895982FDA
:101E700080919B0085FFFCCF90939C0080E00895AB
:101E8000FC0120E030E070E00AC0908180919B006E
:101E900085FFFCCF319690939C002F5F3F4F261714
:101EA00037079CF380E0089580919B0087FFFCCF6B
:101EB0008CB1089580919B0087FFFCCF90919C008E
:101EC00080919B0085FFFCCF90939C00892F089503
:101ED00080919B00807808959093EF048093EE04A6
:101EE0007093F1046093F0041092ED041092EC04EE
:101EF0001092EB0408951092ED041092EC041092ED
:101F0000EB040895CF92DF92EF92FF920F931F930D
:101F1000CF93DF93182F062FF72ED42EC52EE22E47
:101F2000E091EE04F091EF048EE70995E091EE0464
:101F3000F091EF0480E00995E091EE04F091EF0458
:101F40008E2D825F0995E091EE04F091EF04812FD0
:101F50000995E091EE04F091EF048091E904099570
:101F60008091E904180F8F5F8093E904202F3F2DA3
:101F7000C901EC0100E0E091EE04F091EF048881EA
:101F800009958991180F0F5F0830A9F7E091EE04C9
:101F9000F091EF048FEF0995E091EE04F091EF04DA
:101FA0008EEF09951350E091EE04F091EF0480E07C
:101FB0000995E091EE04F091EF0480E009952D2D54
:101FC0003C2DC901EC0100E005C08881099589918B
:101FD000180F0F5FE091EE04F091EF040E15A8F3D7
:101FE000812F80950995DF91CF911F910F91FF90DF
:101FF000EF90DF90CF900895482F1092EA0420913F
:10200000EB043091EC04F9013196F093EC04E09389
:10201000EB048091ED04813009F076C0E130F105E8
:1020200029F410925C0540935D050895E230F105B6
:1020300069F4842F90E020915C0530915D05822B3E
:10204000932B90935D0580935C050895E330F10533
:1020500029F440935E05409359060895225030407C
:1020600080915C0590915D0528173907C9F580912D
:102070005906840F90E08F3F910509F58DB79EB703
:102080008E5F90400FB6F8949EBF0FBE8DBFADB768
:10209000BEB71196ECE5F5E08EEF01900D92815000
:1020A000E1F7E091F004F091F10409958DB79EB746
:1020B00082509F4F0FB6F8949EBF0FBE8DBF1092F7
:1020C000ED0420915C0530915D052150304040E0E9
:1020D00001C04F5F842F90E082179307D0F30895DB
:1020E000EF3FF10509F048F4E55AFA4F408380913B
:1020F0005906840F8093590608951092ED041092AA
:10210000EC041092EB0408954E3749F481E080937B
:10211000ED041092EC041092EB041092590608950D
:102120008091EA048F5F8093EA048091EA04853607
:1021300040F01092ED041092EC041092EB04109217
:10214000EA040895379A359886B1876086B987B1D1
:102150008F73806487B93D98339A10925A06089518
:1021600033983798089596B1987F982B96B908952B
:1021700097B18295880F880F807C9F73982B97B9B1
:10218000089597B18F71907E892B87B90895349AFD
:10219000369A089586B18074089510925A0697B1C0
:1021A0008F71907E892B87B9349A369A3699FECFF3
:1021B00024B145B1942F80E030E0282B392BC901A0
:1021C000089524B145B1942F80E030E0282B392BBD
:1021D000C90108950E94CD1096958795969587958B
:1021E00008951F920F920FB60F9211248F9381E0E2
:1021F00080935A068F910F900FBE0F901F901895E5
:10220000AF92BF92CF92DF92EF92FF920F931F9304
:102210005A016B017901AA2797FDA095BA2FBC013D
:10222000CD010E944D16A60195010E94B2155B01D9
:102230006C010027F7FC0095102FC801B7010E9420
:102240004D169B01AC01C601B5010E9449150E94C3
:102250001A16CB011F910F91FF90EF90DF90CF9056
:10226000BF90AF900895EF92FF920F931F937A0162
:102270008B01280F391F442737FD4095542FCA0181
:10228000B9010E944D16A80197010E94FD160E94F7
:102290001A16CB011F910F91FF90EF9008959C01AA
:1022A00002C028593E4F37FDFCCF02C028563140AE
:1022B00081E028363807D4F7C9010895EF92FF92DC
:1022C0000F931F93DF93CF93CDB7DEB70DB71EB734
:1022D000A62FB0E09D012F5F3F4F4DB75EB7421B69
:1022E000530B0FB6F8945EBF0FBE4DBF4F5F5F4FED
:1022F0009C0190E009C07A01E90EF11CF90181917D
:102300009F01F70180839F5F9617A8F3A40FB51F65
:102310008AE08C93CA010E9474170FB6F8941EBF0E
:102320000FBE0DBFCF91DF911F910F91FF90EF90E6
:1023300008952F923F924F925F926F927F928F9269
:102340009F92AF92BF92CF92DF92EF92FF920F9344
:102350001F93DF93CF93CDB7DEB761970FB6F89495
:10236000DEBF0FBECDBF3C017F876E876A01FC01D7
:1023700017821682838181FD03C06FEF7FEF6FC3E9
:102380009E012F5F3F4F398B288BF3012381EE8510
:10239000FF8523FD859123FF8191FF87EE878823A9
:1023A00009F45AC3853251F4EE85FF8523FD8591EA
:1023B00023FF8191FF87EE87853229F490E0B301F6
:1023C0000E94EB18E2CF982F10E088249924103255
:1023D000B0F49B3269F09C3228F4903251F0933281
:1023E00071F40BC09D3239F0903349F4116028C06C
:1023F0001260146025C0186023C0106121C017FD51
:102400002AC0892F80538A3078F416FF06C0FAE07C
:102410009F9E902C1124980E13C03AE0839E802C2E
:102420001124880E10620CC09E3221F416FD14C3D4
:10243000106406C09C3611F4106802C0983659F436
:10244000EE85FF8523FD959123FF9191FF87EE8710
:10245000992309F0BCCF892F8554833020F4812F34
:102460008061905E07C0892F8556833008F09FC138
:10247000812F8F7E86FD02C076E0972E6FE3F62EC9
:10248000F822953619F4F0E4FF2A07C0963619F4BD
:1024900020E8F22A02C091109A94F7FE0AC03BE3AA
:1024A000391518F45CE3B52E02C0B92CB39427E0BB
:1024B00009C047E0491520F4BB2447E0942EF7CF2C
:1024C000292DBB24C60104969D878C87F601608167
:1024D000718182819381AE014F5F5F4F0B2D0E940E
:1024E00092176C010981202E332400FF04C003FDE4
:1024F00002C01DE209C0F1FE02C01BE205C0F2FCF1
:1025000002C010E001C010E2C1018C709070892BF4
:10251000B9F1112311F483E001C084E0881510F0B3
:1025200088240AC0881AF3FC07C080E290E0B30157
:102530000E94EB188A94C9F7112329F0812F90E0AB
:10254000B3010E94EB1823FE03C00CE810E00EC09C
:1025500000E910E00BC0E114F10409F0805290E0B2
:10256000B3010E94EB180F5F1F4F05C0EF2CFF2433
:10257000F0E1EF22FF24F8018491882361F714C170
:10258000F7FE12C0BC0C24FE04C08A81813309F41A
:10259000BA941B141CF0BB24B3942DC0F8E0FB15B7
:1025A00050F538E0B32E27C0F6FC25C0892D90E009
:1025B0008C159D054CF02CEFC2162FEFD20624F09F
:1025C00030E8F32A01C09A94992049F0E2E0F0E063
:1025D000EC0FFD1FE90DF11D80818033A1F3F7FEA3
:1025E0000AC0B92CB394892D90E0C816D90614F00E
:1025F000992401C09C18F7FC03C025E030E009C015
:102600001C141D041CF021E030E003C096012F5F74
:102610003F4F112311F02F5F3F4F992029F0892D53
:1026200090E00196280F391F882D90E02817390770
:1026300014F0882401C0821A4F2C5524C2018970DD
:102640009070892B39F008C080E290E0B3010E94BD
:10265000EB188A948820C1F7112329F0812F90E08C
:10266000B3010E94EB1843FE07C008C080E390E06E
:10267000B3010E94EB188A948820C1F7F7FE46C088
:102680008601D7FE02C000E010E076010894E11C4C
:10269000F11CE01AF10A41E050E04C0F5D1FE40E1E
:1026A000F51E26014B185108892D90E0AA24BB2461
:1026B000A81AB90A5FEF0F3F150729F48EE290E0E0
:1026C000B3010E94EB18C016D10634F04016510633
:1026D0001CF4F701808101C080E301501040089490
:1026E000E11CF11C0A151B052CF090E0B3010E94BF
:1026F000EB18E0CF0C151D0539F49A81963318F4C8
:10270000953311F424FE81E390E04BC08A8181333C
:1027100009F00F7E90E0B3010E94EB189920A1F020
:102720008EE290E0B3010E94EB1812E0E1E0F0E0ED
:10273000EC0FFD1FE10FF11D1F5F808190E0B301E1
:102740000E94EB189A9491F744FC03C085E690E050
:1027500002C085E490E0B3010E94EB18D7FC05C0ED
:10276000C114D10441F404FF06C0D094C194D1082F
:10277000D3948DE201C08BE290E0B3010E94EB188C
:1027800080E305C08F5F26EF3FEFC20ED31E3AE015
:10279000C316D104BCF790E0B3010E94EB18C60148
:1027A000C096B3010E94EB18CC84DD8452C19336ED
:1027B00031F0933799F0933509F059C023C0F601F1
:1027C000808189835E010894A11CB11C22E030E065
:1027D000C20ED31E21E0E22EF12C12C0F601A08021
:1027E000B18016FD03C06FEF7FEF02C0692D70E06E
:1027F00022E030E0C20ED31EC5010E948C187C017D
:102800001F7713C0F601A080B18016FD03C06FEFE3
:102810007FEF02C0692D70E022E030E0C20ED31ECF
:10282000C5010E946A187C01106813FF07C01BC015
:1028300080E290E0B3010E94EB188A94882D90E02A
:10284000E816F906A8F30FC0F50117FD859117FFEB
:1028500081915F0190E0B3010E94EB1881108A948E
:102860000894E108F108E114F10471F7F2C094361C
:1028700011F0993689F517FF08C0F60120813181E2
:102880004281538184E090E00AC0F6018081918109
:102890009C01442737FD4095542F82E090E0C80EFC
:1028A000D91E9FE6F92EF12257FF09C05095409599
:1028B000309521953F4F4F4F5F4F90E8F92ACA015D
:1028C000B901AE014F5F5F4F2AE030E00E94CD19A1
:1028D000E82EE889EE1A41C0953721F41F7E2AE0E0
:1028E00030E01CC0197F9F3661F0903720F4983596
:1028F00009F0B2C00FC0903739F0983709F0ACC07A
:1029000004C028E030E00AC0106114FD146020E12A
:1029100030E004C014FD166020E132E017FF08C06B
:10292000F601608171818281938144E050E008C0AA
:10293000F60180819181BC0180E090E042E050E0AE
:10294000C40ED51EAE014F5F5F4F0E94CD19E82E19
:102950005889E51A8FE7F82EF122F6FE0BC08EEFAC
:10296000F822E91438F4F4FE07C0F2FC05C09FEE2B
:10297000F92202C01E2D01C0192DF4FE0DC0FE016A
:10298000EE0DF11D8081803319F4E9EEFE2208C0BE
:102990001F5FF2FE05C003C08F2D867809F01F5F10
:1029A0000F2DF3FC14C0F0FE0FC0181510F09E2C74
:1029B0000BC09E2C980C911A182D06C080E290E056
:1029C000B3010E94EB181F5F1815C0F304C018155F
:1029D00010F4811A01C0882404FF0FC080E390E046
:1029E000B3010E94EB1802FF1DC001FD03C088E780
:1029F00090E00EC088E590E00BC0802F867891F0C3
:102A000001FF02C08BE201C080E2F7FC8DE290E0A2
:102A1000B3010E94EB1806C080E390E0B3010E946E
:102A2000EB189A94E914C0F3EA94E1E0F0E0EC0FBB
:102A3000FD1FEE0DF11D808190E0B3010E94EB18A7
:102A4000EE2091F706C080E290E0B3010E94EB18FF
:102A50008A948820C1F799CCF30166817781CB01F4
:102A600061960FB6F894DEBF0FBECDBFCF91DF9158
:102A70001F910F91FF90EF90DF90CF90BF90AF909C
:102A80009F908F907F906F905F904F903F902F908E
:102A900008955058BB27AA270ED075C166D130F0D3
:102AA0006BD120F031F49F3F11F41EF45BC10EF4A2
:102AB000E095E7FB51C1E92F77D180F3BA176207A0
:102AC00073078407950718F071F49EF58FC10EF413
:102AD000E0950B2EBA2FA02D0B01B90190010C012E
:102AE000CA01A0011124FF27591B99F0593F50F446
:102AF000503E68F11A16F040A22F232F342F44279E
:102B0000585FF3CF469537952795A795F040539595
:102B1000C9F77EF41F16BA0B620B730B840BBAF065
:102B20009150A1F0FF0FBB1F661F771F881FC2F7D0
:102B30000EC0BA0F621F731F841F48F487957795E4
:102B40006795B795F7959E3F08F0B3CF9395880F9B
:102B500008F09927EE0F979587950895D9D008F436
:102B600081E008950CD00FC107D140F0FED030F0C5
:102B700021F45F3F19F0F0C0511139C1F3C014D1F5
:102B800098F39923C9F35523B1F3951B550BBB2734
:102B9000AA2762177307840738F09F5F5F4F220FE1
:102BA000331F441FAA1FA9F333D00E2E3AF0E0E8DA
:102BB00030D091505040E695001CCAF729D0FE2F26
:102BC00027D0660F771F881FBB1F261737074807B8
:102BD000AB07B0E809F0BB0B802DBF01FF2793586E
:102BE0005F4F2AF09E3F510568F0B6C000C15F3FBD
:102BF000ECF3983EDCF3869577956795B795F79556
:102C00009F5FC9F7880F911D9695879597F908954D
:102C1000E1E0660F771F881FBB1F621773078407E9
:102C2000BA0720F0621B730B840BBA0BEE1F88F7F8
:102C3000E095089504D06894B111D9C00895BCD02E
:102C400088F09F5790F0B92F9927B751A0F0D1F095
:102C5000660F771F881F991F1AF0BA95C9F712C01F
:102C6000B13081F0C3D0B1E00895C0C0672F782F94
:102C70008827B85F39F0B93FCCF38695779567958B
:102C8000B395D9F73EF490958095709561957F4FF7
:102C90008F4F9F4F0895E89409C097FB3EF490959D
:102CA0008095709561957F4F8F4F9F4F9923A9F025
:102CB000F92F96E9BB279395F695879577956795B4
:102CC000B795F111F8CFFAF4BB0F11F460FF1BC0F8
:102CD0006F5F7F4F8F4F9F4F16C0882311F096E98B
:102CE00011C0772321F09EE8872F762F05C0662339
:102CF00071F096E8862F70E060E02AF09A95660FF2
:102D0000771F881FDAF7880F9695879597F90895AA
:102D1000990F0008550FAA0BE0E8FEEF16161706EC
:102D2000E807F907C0F012161306E407F50798F054
:102D3000621B730B840B950B39F40A2661F0232B6D
:102D4000242B252B21F408950A2609F4A140A695E9
:102D50008FEF811D811D089597F99F6780E870E0CE
:102D600060E008959FEF80EC089500240A94161601
:102D7000170618060906089500240A941216130669
:102D8000140605060895092E0394000C11F48823F7
:102D900052F0BB0F40F4BF2B11F460FF04C06F5F13
:102DA0007F4F8F4F9F4F089557FD9058440F551FE9
:102DB00059F05F3F71F04795880F97FB991F61F0BD
:102DC0009F3F79F087950895121613061406551F34
:102DD000F2CF4695F1DF08C0161617061806991FA0
:102DE000F1CF86957105610508940895E894BB2795
:102DF00066277727CB0197F908950BD0C4CFB5DFAD
:102E000028F0BADF18F0952309F0A6CFABCF112434
:102E1000EECFCADFA0F3959FD1F3950F50E0551F79
:102E2000629FF001729FBB27F00DB11D639FAA271F
:102E3000F00DB11DAA1F649F6627B00DA11D661F6E
:102E4000829F2227B00DA11D621F739FB00DA11D8F
:102E5000621F839FA00D611D221F749F3327A00D49
:102E6000611D231F849F600D211D822F762F6A2FE5
:102E700011249F5750408AF0E1F088234AF0EE0F6A
:102E8000FF1FBB1F661F771F881F91505040A9F777
:102E90009E3F510570F060CFAACF5F3FECF3983EA4
:102EA000DCF3869577956795B795F795E7959F5FDE
:102EB000C1F7FE2B880F911D9695879597F9089578
:102EC000AA1BBB1B51E107C0AA1FBB1FA617B70750
:102ED00010F0A61BB70B881F991F5A95A9F780956C
:102EE0009095BC01CD010895FC0188279927E894AD
:102EF00021912032E9F3293010F02E30C8F32B3223
:102F000041F02D3239F4689404C00E949718820F62
:102F1000911D219120532A30C0F31EF49095819584
:102F20009F4F0895283008F027E03327DA01990FE2
:102F3000311D87FD916000966105710539F432609D
:102F40002E5F3D9330E32A95E1F708959F3F30F0DF
:102F500080387105610509F03C5F3C5F3D9391301D
:102F600008F08068911DDF93CF931F930F93FF921A
:102F7000EF92192F987F9695E92F96959695E90FE0
:102F8000FF27E251FF4F99273327EE24FF24A701A3
:102F9000E70105900894079428F4360FE71EF81E01
:102FA000491F511D660F771F881F991F0694A1F7AF
:102FB0000590079428F4E70EF81E491F561FC11DFF
:102FC000770F881F991F661F0694A1F70590079435
:102FD00028F4F80E491F561FC71FD11D880F991FCF
:102FE000661F771F0694A1F70590079420F4490FF8
:102FF000561FC71FD81F990F661F771F881F06947B
:10300000A9F784911095177041F0D695C7955795FB
:103010004795F794E7941A95C1F7E4E9F0E06894CE
:103020001590159135916591959105907FE2739575
:10303000E118F10A430B560BC90BD009C0F7E10C9C
:10304000F11E431F561FC91FD01D7EF4703311F4AB
:103050008A95E6CFE894015030F0080F0AF4002773
:10306000021708F4202F2395022F7A3328F079E3F2
:103070007D932A95E9F710C07D932A9589F60694E9
:1030800097956795379517951794E118F10A430BB3
:10309000560BC90BD00998F023957E9173957A331E
:1030A00008F070E37C932013B8F77E9170617D93F4
:1030B00030F0839571E37D9370E32A95E1F7112455
:1030C000EF90FF900F911F91CF91DF91992787FD8E
:1030D00090950895FC010590615070400110D8F75B
:1030E000809590958E0F9F1F0895FB01DC0102C013
:1030F00001900D9241505040D8F70895FB01DC013A
:103100004150504030F08D910190801919F4002009
:10311000B9F7881B990B0895FC016150704001902C
:103120000110D8F7809590958E0F9F1F08957AE033
:10313000979F902D879F802D910D112408950F93B7
:103140001F93CF93DF938C01EB01009731F461154E
:10315000710519F420E030E038C081E090E06EE0C5
:1031600070E00E94521AFC019C01009771F180E806
:103170008383209771F0D387C28781E8838380910E
:103180005B0690915C06892B21F4F0935C06E0933A
:103190005B0601151105C9F01187008783818260E4
:1031A000838380915D0690915E06892B71F4F09384
:1031B0005E06E0935D0680915F0690916006892B24
:1031C00021F4F0936006E0935F06C901DF91CF918F
:1031D0001F910F9108950F931F93CF93DF938C014D
:1031E000EB018B8181FF1BC082FF0DC02E813F81CF
:1031F0008C819D812817390764F4E881F981019356
:10320000F983E88306C0E885F985802F0995892B25
:1032100031F48E819F8101969F838E8302C00FEFD0
:103220001FEFC801DF91CF911F910F910895DF9398
:10323000CF93CDB7DEB7FE01359661917191809144
:103240005D0690915E06AF010E949911CF91DF91CA
:1032500008950F931F93CF93DF938C01E0915D0648
:10326000F0915E06838181FF21C0C0E0D0E00DC0F7
:10327000E0915D06F0915E0620853185BF01F90180
:103280000995892B11F0CFEFDFEFF80181918F01C4
:10329000882371F7E0915D06F0915E062085318507
:1032A0008AE0BF01F9010995892B11F0CFEFDFEF1B
:1032B000CE01DF91CF911F910F9108950F931F932E
:1032C000DF93CF93CDB7DEB72E970FB6F894DEBF5E
:1032D0000FBECDBF0D891E898F89988D97FF02C0C3
:1032E00080E090E801979E838D831A83098386E0AE
:1032F0008C839E01255E3F4FCE010196698D7A8DAC
:10330000A9010E9499114D815E8157FD0AC02F814C
:103310003885421753070CF49A01020F131FF80166
:1033200010822E960FB6F894DEBF0FBECDBFCF91A0
:10333000DF911F910F9108950F931F93DF93CF9308
:10334000CDB7DEB72E970FB6F894DEBF0FBECDBF58
:103350000D891E8986E08C831A8309838FEF9FE78E
:103360009E838D839E01275E3F4FCE0101966F891C
:10337000788DA9010E9499112F813885020F131FA2
:10338000F80110822E960FB6F894DEBF0FBECDBFA7
:10339000CF91DF911F910F910895FA01AA2728304C
:1033A00051F1203181F1E8946F936E7F6E5F7F4F12
:1033B0008F4F9F4FAF4FB1E03ED0B4E03CD0670F8E
:1033C000781F891F9A1FA11D680F791F8A1F911DE1
:1033D000A11D6A0F711D811D911DA11D20D009F431
:1033E00068943F912AE0269F11243019305D319373
:1033F000DEF6CF010895462F4770405D4193B3E05C
:103400000FD0C9F7F6CF462F4F70405D4A3318F002
:10341000495D31FD4052419302D0A9F7EACFB4E0B3
:10342000A6959795879577956795BA95C9F700976B
:103430006105710508959B01AC010A2E069457950C
:10344000479537952795BA95C9F7620F731F841F63
:10345000951FA01D0895DC01CB01FC01E199FECF71
:1034600006C0FFBBEEBBE09A31960DB20D92415003
:103470005040B8F70895DC01CB0103C02D910E94A4
:10348000461A41505040D0F70895262FE199FECFBB
:103490009FBB8EBB2DBB0FB6F894E29AE19A0FBE8C
:1034A000019608950F931F93CF93DF93689F800138
:1034B000699F100D789F100D1124C8010E946E1A8B
:1034C000EC01009729F060E070E0A8010E94731BF6
:1034D000CE01DF91CF911F910F910895CF93DF938C
:1034E000BC018230910510F462E070E0A0916306A7
:1034F000B0916406ED01E0E0F0E040E050E021C072
:10350000888199818617970769F48A819B81309712
:1035100019F09383828304C09093640680936306BA
:10352000FE0134C06817790738F44115510519F0C8
:103530008417950708F4AC01FE018A819B819C01E8
:10354000E9012097E9F641155105A9F1CA01861B49
:10355000970B049708F4BA01E0E0F0E02AC08D91DF
:103560009C91119784179507F9F46417750781F4F6
:1035700012968D919C911397309719F093838283C3
:1035800004C09093640680936306FD0132964FC099
:10359000CA01861B970BFD01E80FF91F6193719318
:1035A00002978D939C9343C0FD01828193819C017E
:1035B000D9011097A1F68091610690916206892B3E
:1035C00041F48091D1039091D2039093620680934D
:1035D00061064091D3035091D4034115510541F444
:1035E0004DB75EB78091CF039091D003481B590B24
:1035F000209161063091620624173507B0F4CA01A4
:10360000821B930B8617970780F0AB014E5F5F4FCD
:103610008417950750F0420F531F50936206409352
:103620006106F9016193719302C0E0E0F0E0CF011F
:10363000DF91CF910895CF93DF93009709F450C0A5
:10364000EC0122971B821A82A0916306B091640656
:10365000109709F140E050E0AC17BD0708F1BB83BB
:10366000AA83FE0121913191E20FF31FAE17BF072C
:1036700079F48D919C911197280F391F2E5F3F4F40
:103680003983288312968D919C9113979B838A830B
:103690004115510571F4D0936406C093630620C0B0
:1036A00012968D919C911397AD01009711F0DC015A
:1036B000D3CFFA01D383C28321913191E20FF31F5B
:1036C000CE17DF0769F488819981280F391F2E5F93
:1036D0003F4FFA01318320838A819B8193838283C8
:1036E000DF91CF910895DC0101C06D9341505040AE
:0836F000E0F70895F894FFCF04
:1036F800524F5441544F52203E3E2053544F505045
:10370800454400524F5441544F52203E3E20524FA0
:10371800544154494E47204D414E55414C20434356
:103728005700524F5441544F52203E3E20524F545E
:103738004154494E47204D414E55414C2043570076
:10374800524F5441544F52203E3E20524F54415400
:10375800494E472043435700524F5441544F52203B
:103768003E3E20524F544154494E4720435700454E
:1037780052524F523A2025690A00524F5441544F31
:1037880052203E3E2053544F505045442C2043571E
:1037980020454E44204C494D495420524541434808
:1037A800454400524F5441544F52203E3E205354FA
:1037B8004F505045442C2043435720454E44204CFD
:1037C800494D4954205245414348454400544152CB
:1037D8004745543A2025690A005441524745542028
:1037E8006465673A2025690A00535248002573200A
:1037F8004552524F523A20524F5441544F5220533F
:103808005455434B00494E4600257320256900470F
:1038180042560025732025322E3266004742430067
:1038280047524800474353002573202569202569DE
:1038380020256920256920256920252E3166202527
:103848002E31662025322E32662025322E32660031
:1038580053525300257300534543005343470047D1
:1038680043430047544200257320252E3166004704
:10387800544F0053434900535243004357002573A4
:1038880020257320256920256900434300534500FE
:1038980025732025730053444F004849004C4F00BE
:1038A800496E697469616C697A696E67204144433D
:1038B800005374617274696E6720736F6674776100
:1038C80072650053657474696E6773002D2D2D2D14
:1038D8002D2D2D2D0048454144494E475F53434106
:1038E8004C453A2025660A004C494D204343573A37
:1038F800202569206465670A004C494D2043573AE2
:10390800202569206465670A004C494D20434357C8
:103918003A202569204144430A004C494D20435729
:103928003A202569204144430A004348415247450B
:1039380020494E54455256414C3A2025690A0054B4
:10394800454D5020424F583A20256920252E316692
:10395800430A0054454D50204F55543A20256920BC
:10396800252E3166430A00524F5441544F52204885
:10397800454144494E473A202569202D2025690AAA
:10398800005441524745542072656163686564007C
:103998004D616E75616C20434357004D616E7561D2
:1039A8006C204357004D414E55414C20524F5441D5
:1039B80054494F4E2053544F5050454400FFFF2068
:0639C8000065060000008E
:00000001FF
